:1000000002000E000000000000000002021F7581C7
:10001000481201C8E582600302007A780079007A0C
:10002000007B007C007D00EC4D601C88828983E4AD
:1000300093A3A882A9838A828B83F0A3AA82AB832D
:100040001CBCFFE31D80E07582007583007C007D91
:1000500000EC4D600AE4F0A31CBCFFF51D80F275B6
:1000600082007583007C007D00EC4D600AE4F0A303
:100070001CBCFFF51D80F21201971208DF80FE20E4
:100080000A204265666F7265205475726E696E67EC
:1000900021212121212121212120526967687420F9
:1000A000566F6C746167652052656164696E673A6A
:1000B0002025752C204C65667420566F6C74616722
:1000C000652052656164696E673A20257500200AD3
:1000D000204669727374204C6F6F70205269676894
:1000E0007420566F6C746167652052656164696E37
:1000F000673A2025752C204C65667420566F6C7409
:100100006167652052656164696E673A20257500F4
:100110000D00200A205365636F6E64204C6F6F7072
:1001200020526967687420566F6C7461676520524D
:10013000656164696E673A2025752C204C6566748C
:1001400020566F6C746167652052656164696E67E3
:100150003A202575006D616465207468726F75675B
:100160006820626F7468206C6F6F7073000A0052B1
:10017000696768743A20257520204C6566743A20BA
:10018000257520436D643A2025750A003C4E4F20AA
:10019000464C4F41543E00752A04752B01752C9630
:1001A000752D00752E5A752F0075301B7531007531
:1001B000322075330075341375350075360D75377B
:1001C000007538087539002275E60075E70075D6A8
:1001D0000075D70075CE0075CF0075C60075C700D5
:1001E000758E1175BE0075BF004387807598527576
:1001F0009B00759AFA759B1EC28C75890175F4FF78
:10020000758CFF75F248758A48D28CD2A9D2AF7529
:10021000220075230075260075270075820022C014
:10022000E0C0D075D0000522E522249C5003752241
:1002300000C3E522952492920523E523249C5003D4
:10024000752300C3E523952592940526E526249C75
:100250005003752600C3E526952892900527E527CB
:10026000249C5003752700C3E52795299291D0D08F
:10027000D0E032752833752900227528007529339E
:100280002275242F7525002275240075252F2275CF
:10029000280075290022752400752500227A01792D
:1002A000F878B8D8FED9FADAF622227A147B00C0A0
:1002B00002C00312029DD003D0021ABAFF011BEA4A
:1002C0004B70EC2275820202066C75820302066C8A
:1002D00012028F0202961202C4AA82AB83C002C02D
:1002E000031202CAAC82AD83D003D002C002C003A5
:1002F000C004C005C004C005C002C003747FC0E0D4
:100300007400C0E07480C0E01209C0E58124F9F5F2
:1003100081D005D004D003D002EAC39CFEEB9DFF40
:10032000C374329EE49F5069C3EC9AED9B505D12FA
:1003300005441202C4AA82AB83C002C0031202CADF
:10034000AC82AD83D003D002C002C003C004C0059C
:10035000C004C005C002C00374CEC0E07400C0E099
:100360007480C0E01209C0E58124F9F5817410C0E1
:10037000E07401C0E07480C0E01209C015811581ED
:100380001581D005D004D003D002809C1202D08009
:1003900076ECC39AFEED9BFFC3741E9EE49F5067EC
:1003A000C3EA9CEB9D505D1205411202C4AA82ABC8
:1003B00083C002C0031202CAAC82AD83D003D00254
:1003C000C002C003C004C005C004C005C002C00311
:1003D0007412C0E07401C0E07480C0E01209C0E58E
:1003E0008124F9F5817410C0E07401C0E07480C00C
:1003F000E01209C0158115811581D005D004D00304
:10040000D002809C1202D07455C0E07401C0E07428
:1004100080C0E01209C015811581158122AA82AB26
:10042000837C007D00C3EC9AED64808BF063F080E8
:1004300095F0501AC002C003C004C00512044FD08A
:1004400005D004D003D0020CBC00DA0D80D7227A8C
:10045000027905785CD8FED9FADAF622227A147984
:10046000F878B8D8FED9FADAF622227A0179F87843
:10047000B8D8FED9FADAF622227A0C79F878B8D808
:10048000FED9FADAF622227A1579F878B8D8FED9A8
:10049000FADAF622227A0D79F878B8D8FED9FADAA3
:1004A000F622227A0179F878B8D8FED9FADAF6225B
:1004B0002212027A02028812054790051412041DC6
:1004C0001202D01202819003E812041D12027390EE
:1004D00001F412041D1202D01202739003D9120407
:1004E0001D1202D01202AB1202AB1202AB1202AB0F
:1004F00012027A9003D912041D1202889002581237
:10050000041D1202D01202889003E812041D120288
:100510007A90051412041D0202D0120541120479CA
:100520001205471204871202D012054412047912F0
:10053000054712045D1202D01204951202D0020483
:10054000A3020273020281120273020281C3E495C4
:100550003AE46480853BF063F08095F05009153AE9
:1005600074FFB53A02153B22C3E53A9403E53B64B8
:100570008094805008053AE4B53A02053B22120205
:10058000D01202881202739004FD12041D1202D0D0
:10059000E53C7004753C0122753C00221202D01229
:1005A000027A1202819004FD12041D1202D0E53C71
:1005B0007004753C0122753C0022AA82AB83C2AF55
:1005C000C290C291C292C2947C00C002C003C00417
:1005D00012064ED004D003D0027D00BD0800505456
:1005E000758202C002C003C004C00512066CAE8250
:1005F000AF83D005D004D003D002C3EA9EEB648061
:100600008FF063F08095F050108DF005F07401804C
:100610000225E0D5F0FBFE80027E00EE4204C0021F
:10062000C003C004C005120640D005D004D003D0DA
:10063000020D80A7C00412064ED004D2AF8C8222D5
:100640007A0279C878C8D8FED9FADAF622227A0373
:1006500079C878C8D8FED9FADAF62222AA8253C419
:100660007F8AC5748055C4FABA80F822AA8253C31F
:10067000BF75C33F43C340C2C174184AF582120616
:100680005C7A0A7B001ABAFF011BEA4B70F775828D
:100690005512065C743F55C5FB7A00758255C00241
:1006A000C00312065CD003D002D2C174F055C5FC61
:1006B0007D00EC2AFAED3BC4CAC4540F6ACA540F39
:1006C000CA6ACA8A82F583221202AB1202AB1204F2
:1006D000B71202AB1202AB80F51202C485823D85CF
:1006E000833E1202CA85823F858340E53C60030257
:1006F00007E2E53A253AFEE53B33EE242AF8860682
:10070000088607E53DC39EF582E53E9FF583120905
:100710009CAE82AF83853A41E53BC54125E0C541AA
:1007200033F542E5412432F88604088605C3EE9C81
:10073000EF9D4035E541242AF88604088605C3EC80
:10074000953DED953E500312027AE53A253AFCE5D7
:100750003B33EC242AF88604088605C3E53D9CE576
:100760003E9D500812027380031202D0E53A253AEA
:10077000FCE53B33EC242AF88604088605E53FC3F4
:100780009CF582E5409DF58312099C858241858315
:1007900042E53A253AFEE53B33FFEE2432F8860483
:1007A000088605C3E5419CE5429D4033EE242AF8C6
:1007B0008604088605C3EC953FED95405003120270
:1007C00088E53A253AFCE53B33EC242AF886040810
:1007D0008605C3E53F9CE5409D400122020281025F
:1007E00002D0E53A253AFCE53B33EC242AF88604AE
:1007F000088605E53DC39CF582E53E9DF58312091B
:100800009CAC82AD83E53A253AFEE53B33FFEE240E
:1008100032F88602088603C3EC9AED9B4034EE243E
:100820002AF88602088603C3E53D9AE53E9B5003FD
:1008300012027AE53A253AFAE53B33EA242AF886A9
:1008400002088603C3EA953DEB953E5008120273F9
:1008500080031202D0E53A253AFAE53B33EA242A2E
:10086000F88602088603E53FC39AF582E5409BF5CA
:100870008312099CAA82AB83E53A253AFCE53B3317
:10088000FDEC2432F88606088607C3EA9EEB9F40FB
:1008900032EC242AF88602088603C3E53F9AE54035
:1008A0009B5003120288E53A253AFAE53B33EA24E5
:1008B0002AF88602088603C3EA953FEB9540500666
:1008C0000202810202D02212057E1202AB1202AB9A
:1008D0001202AB12059C1202AB1202AB0202AB7AFF
:1008E00000753A01E4F53B753C01C002746DC0E04F
:1008F0007401C0E07480C0E01209C0158115811533
:1009000081D0028A037C00C002C003C0041202CA64
:10091000AD82AE83C005C0061202C4AF82A883C0F8
:1009200007C000746FC0E07401C0E07480C0E012C2
:1009300009C0E58124F7F5811206D91202C4AB8201
:10094000AC83D002C3EB940AEC940050B6C0021200
:1009500002CAAB82AC83D002C3EB940AEC94005081
:10096000A21202D090000A1205BAAA82BAFD07C0EC
:1009700002120568D002BAF507C00212054DD00276
:10098000BAD507C00212057ED002BA8602800302E1
:100990000903C0021204B7D002020903E58330E75D
:1009A00009F4F583E582F4F582A322021001858221
:1009B0001885831985F01A85091B9009AB020A6A0C
:1009C000C008858108E50824FBF51BE50824FBF831
:1009D000861808861908861A9009AB120A6AD00888
:1009E00022AA8274F2C0E07409C0E0C00AC00B8A77
:1009F00082220511E4B51102051222AA8274302A5E
:100A0000FA24C6500A74072AFA3000034302208AE7
:100A1000820209E1E582FAC4540FF582C00212098C
:100A2000FBD002740F5AF5820209FBAA0CAB0DAC85
:100A30000EAD0FAE10751720EE2EFEED235401FF04
:100A40004206EA2AFAEB33FBEC33FCED33FDC3EE4E
:100A500095134008EEC39513FE430201D517D98ABA
:100A60000C8B0D8C0E8D0F8E102285820A85830BC8
:100A7000E4F511F512AA18AB19AC1A8A828B838C93
:100A8000F0121016FD74012AF518E43BF5198C1AC2
:100A9000EDFA7003020FFABA25028003020FF2C2C8
:100AA00004C205C206C207C208C209C20AC20BC2FA
:100AB00001C202C2037513007514007515FFAB184F
:100AC000AC19AD1A8B828C838DF0121016FAA3AB81
:100AD00082AC838B188C198D1ABA25078A82120969
:100AE000E180928A06BE3000402E8A06EE24C6407F
:100AF0002774FFB51513E51475F00AA4FEEA24D097
:100B00002EF51470BFD20580BBE51575F00AA4FE62
:100B1000EA24D02EF51580ACBA2E0A74FFB515A4C0
:100B2000751500809F8A06BE6100400E8A06EE247D
:100B30008540075302DFD2008002C200BA20028043
:100B400075BA2303020BC5BA2A03020BCABA2B02D9
:100B5000805FBA2D028055BA4202805FBA43030219
:100B60000C0FBA4403020D4ABA4503020D64BA469B
:100B700003020D60BA4703020D68BA4903020D4A29
:100B8000BA4C02803BBA4E03020D6CBA4F03020D01
:100B900051BA5003020CE3BA5303020C33BA5503A3
:100BA000020D56BA5803020D5B020D96D204020ADA
:100BB000C4D206020AC4D207020AC4D209020AC475
:100BC000D20A020AC4D20B020AC474FFB51520303F
:100BD000090BE51B14F8881B8614020AC4E51B24C4
:100BE000FEF8881B8606088607188E14020AC43091
:100BF000090BE51B14F8881B8615020AC4E51B24A3
:100C0000FEF8881B8606088607188E15020AC4306F
:100C1000090AE51B14F8881B8602800FE51B24FED9
:100C2000F8881B8603088604188B028A821209E161
:100C3000020D9BE51B24FDF8881B8603088604082B
:100C4000860518188B0C8C0D8D0E8B828C838DF085
:100C500012104BAB82AC838B1674FFB5150385164F
:100C60001520041DC3E51695145016E514C39516FA
:100C7000F514AB141514EB60087582201209E1809D
:100C8000F1850C82850D83850EF0121016FBFA603B
:100C900029AB151515C3E464808BF063F08095F0E3
:100CA00050188A821209E1AB0CAC0DAD0E0BBB00E3
:100CB000010C8B0C8C0D8D0E80C7200403020D9B44
:100CC000C3E51695144003020D9BE514C39516F574
:100CD00014AB141514EB7003020D9B7582201209DE
:100CE000E180EEE51B24FDF8881B860308860408D6
:100CF000860518188B0C8C0D8D0EE50EFB30E70465
:100D00007A438013EB546060047A50800AEB30E63B
:100D1000047A4980027A588A82C0021209E17582F7
:100D20003A1209E17582301209E17582781209E1FF
:100D3000D002BA4902800BBA50028006850D821299
:100D40000A14850C82120A148051D20875130A8085
:100D50004A751308804575130A8040751310803B4F
:100D6000D2018037D2028033D203802FE51B24FDCD
:100D7000F8881B860308860408860518188B0C8CD7
:100D80000D8D0E8B828C838DF0E511121032A3E550
:100D90001212103280058A821209E1200106200217
:100DA0000330035AE51B24FCF8881B8603088604DD
:100DB0000886050886061818188B0C8C0D8D0E8E6B
:100DC0000F750C8C750D01750E80850C1C850D1D25
:100DD000850E1E7401251CFEE4351DFFAB1E8E0C16
:100DE0008F0D8B0E851C82851D83851EF0121016BB
:100DF000FBFA7003020A758A821209E180CCE513BE
:100E00007003020A757B4830092BE51B14F8881B18
:100E1000E6FC3395E0FDFEFF8C0C8D0D8E0E8F0FE2
:100E200020085EAC0C7D007E007F008C0C8D0D8E4A
:100E30000E8F0F804C300A1FE51B24FCF8881B86A0
:100E4000040886050886060886071818188C0C8D75
:100E50000D8E0E8F0F802AE51B24FEF8881B86045A
:100E600008860518ED3395E0FEFF8C0C8D0D8E0E77
:100E70008F0F20080CAC0CAD0D7E007F008E0E8F06
:100E80000F300B43E50C450D450E450F60397408D6
:100E9000B5130C758230C0031209E1D003802874A9
:100EA00010B51323758230C0031209E1D00330005E
:100EB0000C758278C0031209E1D003800A7582584C
:100EC000C0031209E1D003300825AC0CAD0DAE0E05
:100ED000E50FFF30E717C3E49CFCE49DFDE49EFEB4
:100EE000E49FFF8C0C8D0D8E0E8F0F8002C2087553
:100EF0001600D20C8B00751000C000120A2BD00017
:100F0000200C0DE510C4FCE6FD4CF61888038002A9
:100F1000A6100516B20CE50C450D450E450F70D612
:100F20008803E514700375140120051A200417E5E1
:100F30001604FCC39514500E758220C0031209E1FB
:100F4000D003151480E930080E75822DC0031209F4
:100F5000E1D00315148024E516602030060E75825A
:100F60002BC0031209E1D0031514800F30070C7554
:100F70008220C0031209E1D003151420041EAC1412
:100F80001514C3E5169C50273005047C3080027C84
:100F9000208C82C0031209E1D00380E2C3E51695DC
:100FA000145009E514C39516F51480037514008BCD
:100FB00000AB161516EB6022B20C200C0A08E6C432
:100FC000540FFB8B1080078603740F5BF5108510A0
:100FD00082C0001209FBD00080D7200403020A75EA
:100FE000AB141514EB7003020A757582201209E127
:100FF00080EE8A821209E1020A75851182851283C8
:1010000022AA82BA0A0810990280FB75990D1099DC
:101010000280FB8A992220F71430F6148883A88274
:1010200020F507E6A88375830022E280F7E4932287
:10103000E02220F71030F6118883A88220F507F609
:10104000A88375830022F280F7F022AA82AB83ACDA
:10105000F07D007E008A828B838CF0121016FFA335
:10106000AA82AB83EF60070DBD00EA0E80E78D8298
:101070008E8322000000000000000000000000003D
:00000001FF
