:1000000002000E22000000000000000201F27581D3
:100010004012019BE582600302007A780079007A41
:10002000007B007C007D00EC4D601C88828983E4AD
:1000300093A3A882A9838A828B83F0A3AA82AB832D
:100040001CBCFFE31D80E07582007583007C007D91
:1000500000EC4D600AE4F0A31CBCFFF51D80F275B6
:1000600082007583007C007D00EC4D600AE4F0A303
:100070001CBCFFF51D80F212000312091780FE2040
:100080000A204265666F7265205475726E696E67EC
:1000900021212121212121212120526967687420F9
:1000A000566F6C746167652052656164696E673A6A
:1000B0002025752C204C65667420566F6C74616722
:1000C000652052656164696E673A20257500200AD3
:1000D000204669727374204C6F6F70205269676894
:1000E0007420566F6C746167652052656164696E37
:1000F000673A2025752C204C65667420566F6C7409
:100100006167652052656164696E673A20257500F4
:100110000D00200A205365636F6E64204C6F6F7072
:1001200020526967687420566F6C7461676520524D
:10013000656164696E673A2025752C204C6566748C
:1001400020566F6C746167652052656164696E67E3
:100150003A202575006D616465207468726F75675B
:100160006820626F7468206C6F6F707300526967EB
:1001700068742044697374616E63653A2025752044
:1001800053657420446973743A2025750D000A0084
:100190003C4E4F20464C4F41543E0075E60075E7FB
:1001A0000075D60075D70075CE0075CF0075C600F6
:1001B00075C700758E1175BE0075BF0043878075C9
:1001C0009852759B00759AFA759B1EC28C758901B1
:1001D00075F4FF758CFF75F248758A48D28CD2A9E8
:1001E000D2AF750900750A00750D00750E00758295
:1001F0000022C0E0C0D075D0000509E509249C505C
:1002000003750900C3E509950B9292050AE50A24D6
:100210009C5003750A00C3E50A950C9294050DE500
:100220000D249C5003750D00C3E50D950F929005AC
:100230000EE50E249C5003750E00C3E50E9510923A
:1002400091D0D0D0E032750F4B75100022750F00A1
:1002500075105A22750B52750C0022750B00750C27
:100260005F22750F0075100022750B00750C0022BF
:100270007A0179F878B8D8FED9FADAF622227A1417
:100280007B00C002C003120270D003D0021ABAFF72
:10029000011BEA4B70EC227582020205CD758203C8
:1002A0000205CD120262020269120297AA82AB8392
:1002B000C002C00312029DAC82AD83D003D002C045
:1002C00002C003C004C005C004C005C002C003745E
:1002D0007FC0E07400C0E07480C0E0120A10E581C5
:1002E00024F9F581D005D004D003D002EAC39CFEE6
:1002F000EB9DFFC374329EE49F5069C3EC9AED9B63
:10030000505D1204DB120297AA82AB83C002C003C5
:1003100012029DAC82AD83D003D002C002C003C0E4
:1003200004C005C004C005C002C00374CEC0E074A0
:1003300000C0E07480C0E0120A10E58124F9F58164
:100340007410C0E07401C0E07480C0E0120A10159F
:100350008115811581D005D004D003D002809C1274
:1003600002A38076ECC39AFEED9BFFC3741E9EE44D
:100370009F5067C3EA9CEB9D505D1204D812029710
:10038000AA82AB83C002C00312029DAC82AD83D0AF
:1003900003D002C002C003C004C005C004C005C031
:1003A00002C0037412C0E07401C0E07480C0E012A7
:1003B0000A10E58124F9F5817410C0E07401C0E0F1
:1003C0007480C0E0120A10158115811581D005D006
:1003D00004D003D002809C1202A37455C0E07401C3
:1003E000C0E07480C0E0120A1015811581158122C9
:1003F000AA82AB837C007D00C3EC9AED64808BF015
:1004000063F08095F0501AC002C003C004C005120A
:100410000422D005D004D003D0020CBC00DA0D8039
:10042000D7227A027905785CD8FED9FADAF6222248
:100430007A1479F878B8D8FED9FADAF622227A0155
:1004400079F878B8D8FED9FADAF622227A0C79F857
:1004500078B8D8FED9FADAF622227A1579F878B87F
:10046000D8FED9FADAF622227A0D79F878B8D8FED1
:10047000D9FADAF622227A0179F878B8D8FED9FAD0
:10048000DAF6222212024D02025B120484120430B8
:100490001202A312043E1204D812044C1204841255
:1004A000045A1202A31204DB1204681202A302040B
:1004B000761204D812044C1204DE12045A1202A35B
:1004C0001204DB12044C1204DE1204301202A312D6
:1004D00004681202A30204760202460202541202C7
:1004E00046020254C3E49519E46480851AF063F06F
:1004F0008095F05009151974FFB51902151A22C319
:10050000E5199403E51A6480948050080519E4B550
:100510001902051A221204DB12027E0202A312043F
:10052000D812027E0202A3AA82AB837C00C002C062
:1005300003C0041205AFD004D003D0027D00BD0873
:10054000005054758200C002C003C004C0051205EB
:10055000CDAE82AF83D005D004D003D002C3EA9ED3
:10056000EB64808FF063F08095F050108DF005F013
:100570007401800225E0D5F0FBFE80027E00EE4291
:1005800004C002C003C004C0051205A1D005D004F8
:10059000D003D0020D80A7C0041205AFD0048C8216
:1005A000227A0279F878B8D8FED9FADAF622227AD5
:1005B0000379F878B8D8FED9FADAF62222AA82535B
:1005C000C47F8AC5748055C4FABA80F822AA8253BF
:1005D000C3BF75C33F43C340C2C174184AF58212FA
:1005E00005BD7A0A7B001ABAFF011BEA4B70F7754A
:1005F00082551205BD743F55C5FB7A00758255C002
:1006000002C0031205BDD003D002D2C174F055C59B
:10061000FC7D00EC2AFAED3BC4CAC4540F6ACA54EC
:100620000FCA6ACA8A82F583221205CD12093DAA31
:1006300082AB83ACF0FDC002C003C004C00590A330
:10064000D775F0A07440120949AA82AB83ACF0FDC3
:10065000E58124FCF581E4C0E074C0C0E0747FC093
:10066000E07444C0E08A828B838CF0ED120A31AAD8
:1006700082AB83ACF0FDE58124FCF5818A828B831B
:100680008CF0ED2212025412027E1202A312027E9C
:1006900012025B12027E1202A312027E12024612A4
:1006A000027E1202A312027E12024D12027E12027A
:1006B000A312027E80CE120297AA82AB83C002C030
:1006C0000312029DAC82AD83D003D002E519251937
:1006D000FEE51A33EE2411F88606088607EAC39E63
:1006E000F582EB9FF583C002C003C004C005120968
:1006F000ECAE82AF83D005D004D003D002C3EE9419
:1007000014EF64809480404EE5192519FEE51A33F4
:10071000EE2411F88606088607C3EE9AEF9B501365
:10072000C002C003C004C00512024DD005D004D0E1
:1007300003D002E5192519FEE51A33EE2411F886D7
:1007400006088607C3EA9EEB9F500BC004C0051243
:100750000246D005D004E5192519FAE51A33EA2432
:1007600011F88602088603ECC39AF582ED9BF583A7
:10077000C004C0051209ECAA82AB83D005D004C323
:10078000EA9414EB64809480403EE5192519FAE55B
:100790001A33EA2411F88602088603C3EA9CEB9D0B
:1007A000500BC004C00512025BD005D004E519252A
:1007B00019FAE51A33EA2411F88602088603C3EC15
:1007C0009AED9B5003020254221202A9120297AA28
:1007D00082AB83E5192519FCE51A33EC2411F88660
:1007E00004088605EAC39CFEEB9DFFC374149EE4D7
:1007F0009F500FECC39AFEED9BFFC374149EE49FC1
:10080000400122C002C003C004C005C002C003747E
:100810006DC0E07401C0E07480C0E0120A10E58190
:1008200024F9F581D003D002E5192519FCE51A3326
:10083000EC2411F88604088605C3EA9CEB9D5068F9
:10084000E5192519FEE51A33EE2411F88606088607
:100850000718EAC39EFEEB9FFFC3EE9414EF9400CB
:1008600040431204DE120297AA82AB83E5192519D0
:10087000FEE51A33EE2411F8860608860718C00232
:10088000C003C006C007C002C003746DC0E074019D
:10089000C0E07480C0E0120A10E58124F9F581D02F
:1008A00003D002809B0202A3C3EC9AED9B5067E544
:1008B000192519FCE51A33EC2411F886040886057D
:1008C00018ECC39AFCED9BFDC374149CE49D50434B
:1008D000120484120297AA82AB83E5192519FCE55C
:1008E0001A33EC2411F8860408860518C002C003E8
:1008F000C004C005C002C003746DC0E07401C0E054
:100900007480C0E0120A10E58124F9F581D003D08B
:1009100002809C0202A322751396751400751901BA
:10092000E4F51A748EC0E07401C0E07480C0E01277
:100930000A101581158115811206B680FBE4AC837F
:10094000AB82FAF9748E020B59120BE5BC0003025C
:100950000B84EF60FA30D502B2D1E583B4FF030215
:100960000B9AE582B4FF03020B9A25834007248289
:10097000400B020B842483145003020B9AF582EA85
:100980008DF0A4A8F0EA8EF0A428F8E435F0F9EB95
:100990008DF0A428E935F0F9E433CA8FF0A429F9E1
:1009A000EA35F0FAEBF88EF0A429F9EA35F0FAE42A
:1009B00033FBEC8DF0A429F9EA35F0FAE43BFBE8CF
:1009C0008FF0A42AFAEB35F0FBE433CCFD8EF0A4D3
:1009D0002AFAEB35F0FBE43CFCED8FF0A42BFBECAA
:1009E00035F0FC20E703120BB2020B63E58330E71E
:1009F00009F4F583E582F4F582A32202123385829D
:100A00003085833185F032851E339009FB020C9CC2
:100A1000C008858108E50824FBF533E50824FBF8C8
:100A200086300886310886329009FB120C9CD0086B
:100A300022120BE530D502B2D1BF0009BC0003027F
:100A40000BA7020B9ABC0003020B84E583B4FF0BD7
:100A5000E582B4FF03020BA7020B84E582B4FF0317
:100A6000020B9AC395835007247F400B020B84240A
:100A700080145003020B9AC0E0E4CCCBCAF98D3746
:100A80008E388F39EF54F0C4F53A758306853AF005
:100A9000EB84F582E9C4F9EAC4FAEBC4FBEC540F29
:100AA000C47803D6FC18EBD6FB18EAD6FA8582F098
:100AB000EDA4A8F0FD8582F0EEA428FEE435F0F860
:100AC0008582F0EFA428FFE435F0F8E99DF9EA9E6D
:100AD000FAEB9FFBEC98FCAD37AE38AF3930E7103E
:100AE0001582E92DF9EA3EFAEB3FFBE43CFC80ED90
:100AF000C082D58398C3E933F9EA33FAEB33FBECD0
:100B000033FCC3E99DEA9EEB9FEC9400B3E413F938
:100B1000D002D0E0C44AFAD003D0E0C44BFBD004EA
:100B2000D0E0F5F0540FC44CFCD082158230F40FA5
:100B3000D3EC13FCEB13FBEA13FAE913F90582E992
:100B400030E70A74012AFAE43BFBE43CFC020B7B2D
:100B5000FCABF0AA83A982749EC2D1F582120BB2BB
:100B6000020B63B98003EA13B34010EA2401FAE4EC
:100B70003BFBE43CFC50047C800582BC000EBB00C7
:100B80000BBA0008E4F5F0F583F58222A2D1E582E4
:100B9000138CF092F78B838A8222E4F583F58275B9
:100BA000F080F4A2D11322E4F583F58275F0C074CD
:100BB0007F227804EC7011E58224F8500AF582E473
:100BC000C9CACBFCD8EF22EC7820058220E713D5E8
:100BD000820122C3E933F9EA33FAEB33FBEC33FC4D
:100BE000D8EA158222AA82AB83A2F73392D160029F
:100BF000D2F7F582ACF0E58124F9F8E6FD08E6FECF
:100C00000886F008E6A2F73392D56002D2F7F583A2
:100C1000AFF022AA827424C0E0740CC0E0C022C0ED
:100C2000238A82220529E4B52902052A22AA827490
:100C3000302AFA24C6500A74072AFA300003430205
:100C4000208A82020C13E582FAC4540FF582C00296
:100C5000120C2DD002740F5AF582020C2DAA24AB6F
:100C600025AC26AD27AE28752F20EE2EFEED2354A1
:100C700001FF4206EA2AFAEB33FBEC33FCED33FDCD
:100C8000C3EE952B4008EEC3952BFE430201D52FF2
:100C9000D98A248B258C268D278E28228582228531
:100CA0008323E4F529F52AAA30AB31AC328A828B52
:100CB000838CF0121248FD74012AF530E43BF531C3
:100CC0008C32EDFA700302122CBA25028003021254
:100CD00024C204C205C206C207C208C209C20AC2AF
:100CE0000BC201C202C203752B00752C00752DFFCB
:100CF000AB30AC31AD328B828C838DF0121248FA5E
:100D0000A3AB82AC838B308C318D32BA25078A82BB
:100D1000120C1380928A06BE3000402E8A06EE2402
:100D2000C6402774FFB52D13E52C75F00AA4FEEA22
:100D300024D02EF52C70BFD20580BBE52D75F00AAE
:100D4000A4FEEA24D02EF52D80ACBA2E0A74FFB58D
:100D50002DA4752D00809F8A06BE6100400E8A0674
:100D6000EE248540075302DFD2008002C200BA2081
:100D7000028075BA2303020DF7BA2A03020DFCBAEA
:100D80002B02805FBA2D028055BA4202805FBA43BF
:100D900003020E41BA4403020F7CBA4503020F96C8
:100DA000BA4603020F92BA4703020F9ABA490302E6
:100DB0000F7CBA4C02803BBA4E03020F9EBA4F031F
:100DC000020F83BA5003020F15BA5303020E65BA1D
:100DD0005503020F88BA5803020F8D020FC8D204C0
:100DE000020CF6D206020CF6D207020CF6D2090269
:100DF0000CF6D20A020CF6D20B020CF674FFB52DDB
:100E00002030090BE53314F88833862C020CF6E504
:100E10003324FEF888338606088607188E2C020CC9
:100E2000F630090BE53314F88833862D020CF6E50D
:100E30003324FEF888338606088607188E2D020CA8
:100E4000F630090AE53314F888338602800FE5335B
:100E500024FEF888338603088604188B028A8212DF
:100E60000C13020FCDE53324FDF888338603088682
:100E70000408860518188B248C258D268B828C837C
:100E80008DF012127DAB82AC838B2E74FFB52D03D7
:100E9000852E2D20041DC3E52E952C5016E52CC360
:100EA000952EF52CAB2C152CEB6008758220120CBE
:100EB0001380F18524828525838526F0121248FB54
:100EC000FA6029AB2D152DC3E464808BF063F080AC
:100ED00095F050188A82120C13AB24AC25AD260B6A
:100EE000BB00010C8B248C258D2680C720040302B7
:100EF0000FCDC3E52E952C4003020FCDE52CC395F5
:100F00002EF52CAB2C152CEB7003020FCD75822027
:100F1000120C1380EEE53324FDF88833860308862F
:100F20000408860518188B248C258D26E526FB30B1
:100F3000E7047A438013EB546060047A50800AEB34
:100F400030E6047A4980027A588A82C002120C1371
:100F500075823A120C13758230120C137582781256
:100F60000C13D002BA4902800BBA500280068525C4
:100F700082120C46852482120C468051D208752BB1
:100F80000A804A752B088045752B0A8040752B1006
:100F9000803BD2018037D2028033D203802FE533E9
:100FA00024FDF88833860308860408860518188B04
:100FB000248C258D268B828C838DF0E5291212647A
:100FC000A3E52A12126480058A82120C13200106FE
:100FD00020020330035AE53324FCF88833860308E3
:100FE00086040886050886061818188B248C258D1B
:100FF000268E2775249075250175268085243485D5
:10100000253585263674012534FEE43535FFAB36AB
:101010008E248F258B268534828535838536F01284
:101020001248FBFA7003020CA78A82120C1380CCC0
:10103000E52B7003020CA77B4030092BE53314F835
:101040008833E6FC3395E0FDFEFF8C248D258E264B
:101050008F2720085EAC247D007E007F008C248DCD
:10106000258E268F27804C300A1FE53324FCF88814
:101070003386040886050886060886071818188C23
:10108000248D258E268F27802AE53324FEF8883389
:10109000860408860518ED3395E0FEFF8C248D2527
:1010A0008E268F2720080CAC24AD257E007F008E75
:1010B000268F27300B43E5244525452645276039F3
:1010C0007408B52B0C758230C003120C13D003804A
:1010D000287410B52B23758230C003120C13D00373
:1010E00030000C758278C003120C13D003800A758F
:1010F0008258C003120C13D003300825AC24AD2550
:10110000AE26E527FF30E717C3E49CFCE49DFDE431
:101110009EFEE49FFF8C248D258E268F278002C2A1
:1011200008752E00D20C8B00752800C000120C5DD3
:10113000D000200C0DE528C4FCE6FD4CF618880311
:101140008002A628052EB20CE52445254526452714
:1011500070D68803E52C7003752C0120051A200435
:1011600017E52E04FCC3952C500E758220C0031287
:101170000C13D003152C80E930080E75822DC003A6
:10118000120C13D003152C8024E52E602030060E9F
:1011900075822BC003120C13D003152C800F30075F
:1011A0000C758220C003120C13D003152C20041ED2
:1011B000AC2C152CC3E52E9C50273005047C3080C8
:1011C000027C208C82C003120C13D00380E2C3E5A2
:1011D0002E952C5009E52CC3952EF52C8003752CEB
:1011E000008B00AB2E152EEB6022B20C200C0A08EF
:1011F000E6C4540FFB8B2880078603740F5BF52829
:10120000852882C000120C2DD00080D72004030254
:101210000CA7AB2C152CEB7003020CA775822012C7
:101220000C1380EE8A82120C13020CA7852982858A
:101230002A8322AA82BA0A0810990280FB75990DA6
:1012400010990280FB8A992220F71430F6148883C3
:10125000A88220F507E6A88375830022E280F7E4E0
:101260009322E02220F71030F6118883A88220F51F
:1012700007F6A88375830022F280F7F022AA82ABDA
:1012800083ACF07D007E008A828B838CF012124842
:10129000FFA3AA82AB83EF60070DBD00EA0E80E7D3
:1012A0008D828E83220000000000000000000000FC
:00000001FF
