:1000000002000E22000000000000000201F27581D3
:100010004012019BE582600302007A780079007A41
:10002000007B007C007D00EC4D601C88828983E4AD
:1000300093A3A882A9838A828B83F0A3AA82AB832D
:100040001CBCFFE31D80E07582007583007C007D91
:1000500000EC4D600AE4F0A31CBCFFF51D80F275B6
:1000600082007583007C007D00EC4D600AE4F0A303
:100070001CBCFFF51D80F212000312092780FE2030
:100080000A204265666F7265205475726E696E67EC
:1000900021212121212121212120526967687420F9
:1000A000566F6C746167652052656164696E673A6A
:1000B0002025752C204C65667420566F6C74616722
:1000C000652052656164696E673A20257500200AD3
:1000D000204669727374204C6F6F70205269676894
:1000E0007420566F6C746167652052656164696E37
:1000F000673A2025752C204C65667420566F6C7409
:100100006167652052656164696E673A20257500F4
:100110000D00200A205365636F6E64204C6F6F7072
:1001200020526967687420566F6C7461676520524D
:10013000656164696E673A2025752C204C6566748C
:1001400020566F6C746167652052656164696E67E3
:100150003A202575006D616465207468726F75675B
:100160006820626F7468206C6F6F707300526967EB
:1001700068742044697374616E63653A2025752044
:1001800053657420446973743A2025750D000A0084
:100190003C4E4F20464C4F41543E0075E60075E7FB
:1001A0000075D60075D70075CE0075CF0075C600F6
:1001B00075C700758E1175BE0075BF0043878075C9
:1001C0009852759B00759AFA759B1EC28C758901B1
:1001D00075F4FF758CFF75F248758A48D28CD2A9E8
:1001E000D2AF750900750A00750D00750E00758295
:1001F0000022C0E0C0D075D0000509E509249C505C
:1002000003750900C3E509950B9292050AE50A24D6
:100210009C5003750A00C3E50A950C9294050DE500
:100220000D249C5003750D00C3E50D950F929005AC
:100230000EE50E249C5003750E00C3E50E9510923A
:1002400091D0D0D0E032750F2575100022750F00C7
:1002500075102D22750B29750C0022750B00750C7D
:100260002F22750F0075100022750B00750C0022EF
:100270007A0179F878B8D8FED9FADAF622227A1417
:100280007B00C002C003120270D003D0021ABAFF72
:10029000011BEA4B70EC227582020205CD758203C8
:1002A0000205CD120262020269120297AA82AB8392
:1002B000C002C00312029DAC82AD83D003D002C045
:1002C00002C003C004C005C004C005C002C003745E
:1002D0007FC0E07400C0E07480C0E0120A20E581B5
:1002E00024F9F581D005D004D003D002EAC39CFEE6
:1002F000EB9DFFC374329EE49F5069C3EC9AED9B63
:10030000505D1204DB120297AA82AB83C002C003C5
:1003100012029DAC82AD83D003D002C002C003C0E4
:1003200004C005C004C005C002C00374CEC0E074A0
:1003300000C0E07480C0E0120A20E58124F9F58154
:100340007410C0E07401C0E07480C0E0120A20158F
:100350008115811581D005D004D003D002809C1274
:1003600002A38076ECC39AFEED9BFFC3741E9EE44D
:100370009F5067C3EA9CEB9D505D1204D812029710
:10038000AA82AB83C002C00312029DAC82AD83D0AF
:1003900003D002C002C003C004C005C004C005C031
:1003A00002C0037412C0E07401C0E07480C0E012A7
:1003B0000A20E58124F9F5817410C0E07401C0E0E1
:1003C0007480C0E0120A20158115811581D005D0F6
:1003D00004D003D002809C1202A37455C0E07401C3
:1003E000C0E07480C0E0120A2015811581158122B9
:1003F000AA82AB837C007D00C3EC9AED64808BF015
:1004000063F08095F0501AC002C003C004C005120A
:100410000422D005D004D003D0020CBC00DA0D8039
:10042000D7227A027905785CD8FED9FADAF6222248
:100430007A1479F878B8D8FED9FADAF622227A0155
:1004400079F878B8D8FED9FADAF622227A0C79F857
:1004500078B8D8FED9FADAF622227A1579F878B87F
:10046000D8FED9FADAF622227A0D79F878B8D8FED1
:10047000D9FADAF622227A0179F878B8D8FED9FAD0
:10048000DAF6222212024D02025B120484120430B8
:100490001202A312043E1204D812044C1204841255
:1004A000045A1202A31204DB1204681202A302040B
:1004B000761204D812044C1204DE12045A1202A35B
:1004C0001204DB12044C1204DE1204301202A312D6
:1004D00004681202A30204760202460202541202C7
:1004E00046020254C3E49519E46480851AF063F06F
:1004F0008095F05009151974FFB51902151A22C319
:10050000E5199403E51A6480948050080519E4B550
:100510001902051A221204DB12027E0202A312043F
:10052000D812027E0202A3AA82AB837C00C002C062
:1005300003C0041205AFD004D003D0027D00BD0873
:10054000005054758200C002C003C004C0051205EB
:10055000CDAE82AF83D005D004D003D002C3EA9ED3
:10056000EB64808FF063F08095F050108DF005F013
:100570007401800225E0D5F0FBFE80027E00EE4291
:1005800004C002C003C004C0051205A1D005D004F8
:10059000D003D0020D80A7C0041205AFD0048C8216
:1005A000227A0279F878B8D8FED9FADAF622227AD5
:1005B0000379F878B8D8FED9FADAF62222AA82535B
:1005C000C47F8AC5748055C4FABA80F822AA8253BF
:1005D000C3BF75C33F43C340C2C174184AF58212FA
:1005E00005BD7A0A7B001ABAFF011BEA4B70F7754A
:1005F00082551205BD743F55C5FB7A00758255C002
:1006000002C0031205BDD003D002D2C174F055C59B
:10061000FC7D00EC2AFAED3BC4CAC4540F6ACA54EC
:100620000FCA6ACA8A82F583221205CD12094DAA21
:1006300082AB83ACF0FDC002C003C004C00590A330
:10064000D775F0A07440120959AA82AB83ACF0FDB3
:10065000E58124FCF581E4C0E074C0C0E0747FC093
:10066000E07444C0E08A828B838CF0ED120A41AAC8
:1006700082AB83ACF0FDE58124FCF5818A828B831B
:100680008CF0ED2212025412027E1202A312027E9C
:1006900012025B12027E1202A312027E12024612A4
:1006A000027E1202A312027E12024D12027E12027A
:1006B000A312027E80CE120297AA82AB83C002C030
:1006C0000312029DAC82AD83D003D002E519251937
:1006D000FEE51A33EE2411F88606088607EAC39E63
:1006E000F582EB9FF583C002C003C004C005120968
:1006F000FCAE82AF83D005D004D003D002C3EE9409
:1007000014EF648094804050E5192519FEE51A33F2
:10071000EE2411F88606088607C3EE9AEF9B501365
:10072000C002C003C004C00512024DD005D004D0E1
:1007300003D002E5192519FEE51A33EE2411F886D7
:1007400006088607C3EA9EEB9F5018C004C0051236
:100750000246D005D004800BC004C0051202A3D00D
:1007600005D004E5192519FAE51A33EA2411F886AB
:1007700002088603ECC39AF582ED9BF583C004C0A2
:10078000051209FCAA82AB83D005D004C3EA9414F5
:10079000EB64809480403EE5192519FAE51A33EAA6
:1007A0002411F88602088603C3EA9CEB9D500BC017
:1007B00004C00512025BD005D004E5192519FAE53D
:1007C0001A33EA2411F88602088603C3EC9AED9BDB
:1007D00050060202540202A3221202A9120297AA90
:1007E00082AB83E5192519FCE51A33EC2411F88650
:1007F00004088605EAC39CFEEB9DFFC374149EE4C7
:100800009F500FECC39AFEED9BFFC374149EE49FB0
:10081000400122C002C003C004C005C002C003746E
:100820006DC0E07401C0E07480C0E0120A20E58170
:1008300024F9F581D003D002E5192519FCE51A3316
:10084000EC2411F88604088605C3EA9CEB9D5068E9
:10085000E5192519FEE51A33EE2411F886060886F7
:100860000718EAC39EFEEB9FFFC3EE9414EF9400BB
:1008700040431204DE120297AA82AB83E5192519C0
:10088000FEE51A33EE2411F8860608860718C00222
:10089000C003C006C007C002C003746DC0E074018D
:1008A000C0E07480C0E0120A20E58124F9F581D00F
:1008B00003D002809B0202A3C3EC9AED9B5067E534
:1008C000192519FCE51A33EC2411F886040886056D
:1008D00018ECC39AFCED9BFDC374149CE49D50433B
:1008E000120484120297AA82AB83E5192519FCE54C
:1008F0001A33EC2411F8860408860518C002C003D8
:10090000C004C005C002C003746DC0E07401C0E043
:100910007480C0E0120A20E58124F9F581D003D06B
:1009200002809C0202A322751396751400751901AA
:10093000E4F51A748EC0E07401C0E07480C0E01267
:100940000A201581158115811206B680FBE4AC835F
:10095000AB82FAF9748E020B69120BF5BC0003022C
:100960000B94EF60FA30D502B2D1E583B4FF0302F5
:100970000BAAE582B4FF03020BAA25834007248259
:10098000400B020B942483145003020BAAF582EA55
:100990008DF0A4A8F0EA8EF0A428F8E435F0F9EB85
:1009A0008DF0A428E935F0F9E433CA8FF0A429F9D1
:1009B000EA35F0FAEBF88EF0A429F9EA35F0FAE41A
:1009C00033FBEC8DF0A429F9EA35F0FAE43BFBE8BF
:1009D0008FF0A42AFAEB35F0FBE433CCFD8EF0A4C3
:1009E0002AFAEB35F0FBE43CFCED8FF0A42BFBEC9A
:1009F00035F0FC20E703120BC2020B73E58330E7EE
:100A000009F4F583E582F4F582A32202124385827C
:100A10003085833185F032851E33900A0B020CAC91
:100A2000C008858108E50824FBF533E50824FBF8B8
:100A30008630088631088632900A0B120CACD0083A
:100A400022120BF530D502B2D1BF0009BC0003025F
:100A50000BB7020BAABC0003020B94E583B4FF0B97
:100A6000E582B4FF03020BB7020B94E582B4FF03E7
:100A7000020BAAC395835007247F400B020B9424DA
:100A800080145003020BAAC0E0E4CCCBCAF98D3726
:100A90008E388F39EF54F0C4F53A758306853AF0F5
:100AA000EB84F582E9C4F9EAC4FAEBC4FBEC540F19
:100AB000C47803D6FC18EBD6FB18EAD6FA8582F088
:100AC000EDA4A8F0FD8582F0EEA428FEE435F0F850
:100AD0008582F0EFA428FFE435F0F8E99DF9EA9E5D
:100AE000FAEB9FFBEC98FCAD37AE38AF3930E7102E
:100AF0001582E92DF9EA3EFAEB3FFBE43CFC80ED80
:100B0000C082D58398C3E933F9EA33FAEB33FBECBF
:100B100033FCC3E99DEA9EEB9FEC9400B3E413F928
:100B2000D002D0E0C44AFAD003D0E0C44BFBD004DA
:100B3000D0E0F5F0540FC44CFCD082158230F40F95
:100B4000D3EC13FCEB13FBEA13FAE913F90582E982
:100B500030E70A74012AFAE43BFBE43CFC020B8B0D
:100B6000FCABF0AA83A982749EC2D1F582120BC29B
:100B7000020B73B98003EA13B34010EA2401FAE4CC
:100B80003BFBE43CFC50047C800582BC000EBB00B7
:100B90000BBA0008E4F5F0F583F58222A2D1E582D4
:100BA000138CF092F78B838A8222E4F583F58275A9
:100BB000F080F4A2D11322E4F583F58275F0C074BD
:100BC0007F227804EC7011E58224F8500AF582E463
:100BD000C9CACBFCD8EF22EC7820058220E713D5D8
:100BE000820122C3E933F9EA33FAEB33FBEC33FC3D
:100BF000D8EA158222AA82AB83A2F73392D160028F
:100C0000D2F7F582ACF0E58124F9F8E6FD08E6FEBE
:100C10000886F008E6A2F73392D56002D2F7F58392
:100C2000AFF022AA827434C0E0740CC0E0C022C0CD
:100C3000238A82220529E4B52902052A22AA827480
:100C4000302AFA24C6500A74072AFA3000034302F5
:100C5000208A82020C23E582FAC4540FF582C00276
:100C6000120C3DD002740F5AF582020C3DAA24AB3F
:100C700025AC26AD27AE28752F20EE2EFEED235491
:100C800001FF4206EA2AFAEB33FBEC33FCED33FDBD
:100C9000C3EE952B4008EEC3952BFE430201D52FE2
:100CA000D98A248B258C268D278E28228582228521
:100CB0008323E4F529F52AAA30AB31AC328A828B42
:100CC000838CF0121258FD74012AF530E43BF531A3
:100CD0008C32EDFA700302123CBA25028003021234
:100CE00034C204C205C206C207C208C209C20AC28F
:100CF0000BC201C202C203752B00752C00752DFFBB
:100D0000AB30AC31AD328B828C838DF0121258FA3D
:100D1000A3AB82AC838B308C318D32BA25078A82AB
:100D2000120C2380928A06BE3000402E8A06EE24E2
:100D3000C6402774FFB52D13E52C75F00AA4FEEA12
:100D400024D02EF52C70BFD20580BBE52D75F00A9E
:100D5000A4FEEA24D02EF52D80ACBA2E0A74FFB57D
:100D60002DA4752D00809F8A06BE6100400E8A0664
:100D7000EE248540075302DFD2008002C200BA2071
:100D8000028075BA2303020E07BA2A03020E0CBAB8
:100D90002B02805FBA2D028055BA4202805FBA43AF
:100DA00003020E51BA4403020F8CBA4503020FA688
:100DB000BA4603020FA2BA4703020FAABA490302B6
:100DC0000F8CBA4C02803BBA4E03020FAEBA4F03EF
:100DD000020F93BA5003020F25BA5303020E75BADD
:100DE0005503020F98BA5803020F9D020FD8D20480
:100DF000020D06D206020D06D207020D06D2090226
:100E00000D06D20A020D06D20B020D0674FFB52D97
:100E10002030090BE53314F88833862C020D06E5E3
:100E20003324FEF888338606088607188E2C020DB8
:100E30000630090BE53314F88833862D020D06E5DC
:100E40003324FEF888338606088607188E2D020D97
:100E50000630090AE53314F888338602800FE5333B
:100E600024FEF888338603088604188B028A8212CF
:100E70000C23020FDDE53324FDF888338603088652
:100E80000408860518188B248C258D268B828C836C
:100E90008DF012128DAB82AC838B2E74FFB52D03B7
:100EA000852E2D20041DC3E52E952C5016E52CC350
:100EB000952EF52CAB2C152CEB6008758220120CAE
:100EC0002380F18524828525838526F0121258FB24
:100ED000FA6029AB2D152DC3E464808BF063F0809C
:100EE00095F050188A82120C23AB24AC25AD260B4A
:100EF000BB00010C8B248C258D2680C720040302A7
:100F00000FDDC3E52E952C4003020FDDE52CC395C4
:100F10002EF52CAB2C152CEB7003020FDD75822007
:100F2000120C2380EEE53324FDF88833860308860F
:100F30000408860518188B248C258D26E526FB30A1
:100F4000E7047A438013EB546060047A50800AEB24
:100F500030E6047A4980027A588A82C002120C2351
:100F600075823A120C23758230120C237582781226
:100F70000C23D002BA4902800BBA500280068525A4
:100F800082120C56852482120C568051D208752B81
:100F90000A804A752B088045752B0A8040752B10F6
:100FA000803BD2018037D2028033D203802FE533D9
:100FB00024FDF88833860308860408860518188BF4
:100FC000248C258D268B828C838DF0E5291212745A
:100FD000A3E52A12127480058A82120C23200106CE
:100FE00020020330035AE53324FCF88833860308D3
:100FF00086040886050886061818188B248C258D0B
:10100000268E2775249075250175268085243485C4
:10101000253585263674012534FEE43535FFAB369B
:101020008E248F258B268534828535838536F01274
:101030001258FBFA7003020CB78A82120C2380CC80
:10104000E52B7003020CB77B4030092BE53314F815
:101050008833E6FC3395E0FDFEFF8C248D258E263B
:101060008F2720085EAC247D007E007F008C248DBD
:10107000258E268F27804C300A1FE53324FCF88804
:101080003386040886050886060886071818188C13
:10109000248D258E268F27802AE53324FEF8883379
:1010A000860408860518ED3395E0FEFF8C248D2517
:1010B0008E268F2720080CAC24AD257E007F008E65
:1010C000268F27300B43E5244525452645276039E3
:1010D0007408B52B0C758230C003120C23D003802A
:1010E000287410B52B23758230C003120C23D00353
:1010F00030000C758278C003120C23D003800A756F
:101100008258C003120C23D003300825AC24AD252F
:10111000AE26E527FF30E717C3E49CFCE49DFDE421
:101120009EFEE49FFF8C248D258E268F278002C291
:1011300008752E00D20C8B00752800C000120C6DB3
:10114000D000200C0DE528C4FCE6FD4CF618880301
:101150008002A628052EB20CE52445254526452704
:1011600070D68803E52C7003752C0120051A200425
:1011700017E52E04FCC3952C500E758220C0031277
:101180000C23D003152C80E930080E75822DC00386
:10119000120C23D003152C8024E52E602030060E7F
:1011A00075822BC003120C23D003152C800F30073F
:1011B0000C758220C003120C23D003152C20041EB2
:1011C000AC2C152CC3E52E9C50273005047C3080B8
:1011D000027C208C82C003120C23D00380E2C3E582
:1011E0002E952C5009E52CC3952EF52C8003752CDB
:1011F000008B00AB2E152EEB6022B20C200C0A08DF
:10120000E6C4540FFB8B2880078603740F5BF52818
:10121000852882C000120C3DD00080D72004030234
:101220000CB7AB2C152CEB7003020CB77582201297
:101230000C2380EE8A82120C23020CB7852982854A
:101240002A8322AA82BA0A0810990280FB75990D96
:1012500010990280FB8A992220F71430F6148883B3
:10126000A88220F507E6A88375830022E280F7E4D0
:101270009322E02220F71030F6118883A88220F50F
:1012800007F6A88375830022F280F7F022AA82ABCA
:1012900083ACF07D007E008A828B838CF012125822
:1012A000FFA3AA82AB83EF60070DBD00EA0E80E7C3
:1012B0008D828E83220000000000000000000000EC
:00000001FF
