:1000000002000E220000000000000002012775819E
:10001000401200D0E582600302007A780079007A0D
:10002000007B007C007D00EC4D601C88828983E4AD
:1000300093A3A882A9838A828B83F0A3AA82AB832D
:100040001CBCFFE31D80E07582007583007C007D91
:1000500000EC4D600AE4F0A31CBCFFF51D80F275B6
:1000600082007583007C007D00EC4D600AE4F0A303
:100070001CBCFFF51D80F21200031206BD80FE209D
:100080000A20526967687420566F6C746167652036
:1000900052656164696E673A2025752C204C65664F
:1000A0007420566F6C746167652052656164696E77
:1000B000673A202575000D004C6F6F707320676FD5
:1000C0006F64000A003C4E4F20464C4F41543E00A6
:1000D00075E60075E70075D60075D70075CE00751A
:1000E000CF0075C60075C700758E1175BE0075BF4F
:1000F00000438780759852759B00759AFA759B1E10
:10010000C28C75890175F4FF758CFF75F248758A8C
:1001100048D28CD2A9D2AF750900750A00750D00BE
:10012000750E0075820022C0E0C0D075D0000509B0
:10013000E509249C5003750900C3E509950B9292CB
:10014000050AE50A249C5003750A00C3E50A950CCC
:100150009294050DE50D249C5003750D00C3E50D2B
:10016000950F9290050EE50E249C5003750E00C36A
:10017000E50E95109291D0D0D0E032750F4B7510EE
:100180000022750F0075105A22750B52750C002253
:10019000750B00750C5F22750F0075100022750B32
:1001A00000750C00227A0179F878B8D8FED9FADA0D
:1001B000F622227A147B00C002C0031201A5D003EC
:1001C000D0021ABAFF011BEA4B70EC2275820102C1
:1001D000046175820002046112019702019E1201FE
:1001E000CCAA82AB83C002C0031201D2AC82AD8321
:1001F000D003D002C002C003C004C005C004C005C3
:10020000C002C003747FC0E07400C0E07480C0E02E
:100210001207B6E58124F9F58174B6C0E07400C018
:10022000E07480C0E01207B6158115811581D005F4
:10023000D004D003D002EAC39CFEEB9DFFC374320E
:100240009EE49F5025C3EC9AED9B501B12036F1246
:1002500001CCAA82AB83C002C0031201D2AC82AD32
:1002600083D003D00280DE0201D8ECC39AFEED9B5E
:10027000FFC374329EE49F504AC002C003C004C052
:100280000574B8C0E07400C0E07480C0E01207B626
:10029000158115811581D005D004D003D002C3EAA1
:1002A0009CEB9D501B12036C1201CCAA82AB83C045
:1002B00002C0031201D2AC82AD83D003D00280DE33
:1002C0000201D8227A1479F878B8D8FED9FADAF689
:1002D00022227A0179F878B8D8FED9FADAF6222201
:1002E0007A0C79F878B8D8FED9FADAF622227A159B
:1002F00079F878B8D8FED9FADAF622227A0D79F8A8
:1003000078B8D8FED9FADAF622227A0179F878B8E4
:10031000D8FED9FADAF622221201820201901203E3
:10032000181202C41201D81202D212036C1202E097
:100330001203181202EE1201D812036F1202FC12FD
:1003400001D802030A12036C1202E01203721202B5
:10035000EE1201D812036F1202E01203721202C4ED
:100360001201D81202FC1201D802030A02017B0218
:10037000018912017B020189C3E49519E464808537
:100380001AF063F08095F05009151974FFB5190241
:10039000151A22C3E5199403E51A64809480500865
:1003A0000519E4B51902051A2212036F1201B302EE
:1003B00001D812036C1201B30201D8AA82AB837C6C
:1003C00000C002C003C004120443D004D003D00212
:1003D0007D00BD08005054758200C002C003C004F7
:1003E000C005120461AE82AF83D005D004D003D023
:1003F00002C3EA9EEB64808FF063F08095F05010AA
:100400008DF005F07401800225E0D5F0FBFE80023E
:100410007E00EE4204C002C003C004C005120435D1
:10042000D005D004D003D0020D80A7C0041204432D
:10043000D0048C82227A0279F878B8D8FED9FADA18
:10044000F622227A0379F878B8D8FED9FADAF622B9
:1004500022AA8253C47F8AC5748055C4FABA80F830
:1004600022AA8253C3BF75C33F43C340C2C174189D
:100470004AF5821204517A0A7B001ABAFF011BEA7C
:100480004B70F7758255120451743F55C5FB7A00C5
:10049000758255C002C003120451D003D002D2C1EC
:1004A00074F055C5FC7D00EC2AFAED3BC4CAC45477
:1004B0000F6ACA540FCA6ACA8A82F583221204617B
:1004C0001206E3AA82AB83ACF0FDC002C003C004F5
:1004D000C00590A3D775F0A074401206EFAA82ABB6
:1004E00083ACF0FDE58124FCF581E4C0E074C0C07C
:1004F000E0747FC0E07444C0E08A828B838CF0EDAE
:100500001207D7AA82AB83ACF0FDE58124FCF5810C
:100510008A828B838CF0ED221201891201B31201C1
:10052000D81201B31201901201B31201D81201B313
:1005300012017B1201B31201D81201B3120182120F
:1005400001B31201D81201B380CE1201CC85821BF7
:1005500085831C1201D2AC82AD83E5192519FEE515
:100560001A33EE2411F88606088607EEC3951BF5AC
:1005700082EF951CF583C004C005120792AE82AFCE
:1005800083D005D004C374509EE464808FF063F080
:100590008095F04003020613E5192519FEE51A338C
:1005A000EE2411F88606088607C3EE951BEF951C0E
:1005B000502CE5192519FAE51A33EA2411F88602B8
:1005C00008860318C3EA951BEB951C500E12017B9D
:1005D0001201CC85821B85831C80D70201D8C3E51C
:1005E0001B9EE51C9F502CE5192519FAE51A33EAE4
:1005F0002411F8860208860318C3E51B9AE51C9BA4
:10060000500E1201821201CC85821B85831C80D77B
:100610000201D8E5192519FAE51A33EA2411F886FA
:1006200002088603EAC39CF582EB9DF583C004C0F3
:1006300005120792AA82AB83D005D004C374509AE6
:10064000E464808BF063F08095F0400122E5192589
:1006500019FAE51A33EA2411F88602088603C3EA78
:100660009CEB9D5028E5192519FEE51A33EE24115F
:10067000F8860608860718C3EE9CEF9D500C120101
:10068000891201D2AC82AD8380DB0201D8C3EC9A1F
:10069000ED9B5028E5192519FAE51A33EA2411F8DB
:1006A000860208860318C3EC9AED9B500C12019049
:1006B0001201D2AC82AD8380DB0201D82275139681
:1006C000751400751901E4F51A74C3C0E07400C014
:1006D000E07480C0E01207B61581158115811205FE
:1006E0004A80FBE4AC83AB82FAF9748E0208FF12F5
:1006F000098BBC000302092AEF60FA30D502B2D19F
:10070000E583B4FF03020940E582B4FF0302094018
:10071000258340072482400B02092A2483145003B6
:10072000020940F582EA8DF0A4A8F0EA8EF0A42830
:10073000F8E435F0F9EB8DF0A428E935F0F9E4336D
:10074000CA8FF0A429F9EA35F0FAEBF88EF0A42963
:10075000F9EA35F0FAE433FBEC8DF0A429F9EA3537
:10076000F0FAE43BFBE88FF0A42AFAEB35F0FBE467
:1007700033CCFD8EF0A42AFAEB35F0FBE43CFCED23
:100780008FF0A42BFBEC35F0FC20E7031209580294
:100790000909E58330E709F4F583E582F4F582A3DE
:1007A00022020FD985823085833185F032851D3351
:1007B0009007A1020A42C008858108E50824FBF5DC
:1007C00033E50824FBF88630088631088632900726
:1007D000A1120A42D0082212098B30D502B2D1BF31
:1007E0000009BC000302094D020940BC00030209D4
:1007F0002AE583B4FF0BE582B4FF0302094D020929
:100800002AE582B4FF03020940C395835007247F81
:10081000400B02092A2480145003020940C0E0E47E
:10082000CCCBCAF98D378E388F39EF54F0C4F53AF6
:10083000758306853AF0EB84F582E9C4F9EAC4FAD7
:10084000EBC4FBEC540FC47803D6FC18EBD6FB18B2
:10085000EAD6FA8582F0EDA4A8F0FD8582F0EEA438
:1008600028FEE435F0F88582F0EFA428FFE435F0A7
:10087000F8E99DF9EA9EFAEB9FFBEC98FCAD37AEE8
:1008800038AF3930E7101582E92DF9EA3EFAEB3F2F
:10089000FBE43CFC80EDC082D58398C3E933F9EAE0
:1008A00033FAEB33FBEC33FCC3E99DEA9EEB9FECA0
:1008B0009400B3E413F9D002D0E0C44AFAD003D0D4
:1008C000E0C44BFBD004D0E0F5F0540FC44CFCD096
:1008D00082158230F40FD3EC13FCEB13FBEA13FA0E
:1008E000E913F90582E930E70A74012AFAE43BFBCF
:1008F000E43CFC020921FCABF0AA83A982749EC2ED
:10090000D1F582120958020909B98003EA13B340EC
:1009100010EA2401FAE43BFBE43CFC50047C800533
:1009200082BC000EBB000BBA0008E4F5F0F583F5BD
:100930008222A2D1E582138CF092F78B838A8222E5
:10094000E4F583F58275F080F4A2D11322E4F583F7
:10095000F58275F0C0747F227804EC7011E5822472
:10096000F8500AF582E4C9CACBFCD8EF22EC782013
:10097000058220E713D5820122C3E933F9EA33FA6D
:10098000EB33FBEC33FCD8EA158222AA82AB83A2BC
:10099000F73392D16002D2F7F582ACF0E58124F909
:1009A000F8E6FD08E6FE0886F008E6A2F73392D5E1
:1009B0006002D2F7F583AFF022AA8274CAC0E07455
:1009C00009C0E0C022C0238A82220529E4B5290299
:1009D000052A22AA8274302AFA24C6500A74072AE9
:1009E000FA3000034302208A820209B9E582FAC480
:1009F000540FF582C0021209D3D002740F5AF58247
:100A00000209D3AA24AB25AC26AD27AE28752F202A
:100A1000EE2EFEED235401FF4206EA2AFAEB33FBE9
:100A2000EC33FCED33FDC3EE952B4008EEC3952B64
:100A3000FE430201D52FD98A248B258C268D278E43
:100A40002822858222858323E4F529F52AAA30AB62
:100A500031AC328A828B838CF0120FEEFD74012A46
:100A6000F530E43BF5318C32EDFA7003020FD2BA67
:100A700025028003020FCAC204C205C206C207C211
:100A800008C209C20AC20BC201C202C203752B000E
:100A9000752C00752DFFAB30AC31AD328B828C8361
:100AA0008DF0120FEEFAA3AB82AC838B308C318DBC
:100AB00032BA25078A821209B980928A06BE3000AE
:100AC000402E8A06EE24C6402774FFB52D13E52C70
:100AD00075F00AA4FEEA24D02EF52C70BFD2058052
:100AE000BBE52D75F00AA4FEEA24D02EF52D80ACCE
:100AF000BA2E0A74FFB52DA4752D00809F8A06BEFC
:100B00006100400E8A06EE248540075302DFD200C2
:100B10008002C200BA20028075BA2303020B9DBA7C
:100B20002A03020BA2BA2B02805FBA2D028055BAAB
:100B30004202805FBA4303020BE7BA4403020D226C
:100B4000BA4503020D3CBA4603020D38BA47030208
:100B50000D40BA4903020D22BA4C02803BBA4E0343
:100B6000020D44BA4F03020D29BA5003020CBBBA5E
:100B70005303020C0BBA5503020D2EBA5803020D93
:100B800033020D6ED204020A9CD206020A9CD207DE
:100B9000020A9CD209020A9CD20A020A9CD20B02C7
:100BA0000A9C74FFB52D2030090BE53314F8883307
:100BB000862C020A9CE53324FEF8883386060886D4
:100BC00007188E2C020A9C30090BE53314F8883381
:100BD000862D020A9CE53324FEF8883386060886B3
:100BE00007188E2D020A9C30090AE53314F8883361
:100BF0008602800FE53324FEF888338603088604D6
:100C0000188B028A821209B9020D73E53324FDF8AC
:100C10008833860308860408860518188B248C25DB
:100C20008D268B828C838DF0121023AB82AC838B4C
:100C30002E74FFB52D03852E2D20041DC3E52E95A2
:100C40002C5016E52CC3952EF52CAB2C152CEB60F7
:100C5000087582201209B980F18524828525838553
:100C600026F0120FEEFBFA6029AB2D152DC3E464BC
:100C7000808BF063F08095F050188A821209B9AB2E
:100C800024AC25AD260BBB00010C8B248C258D26B6
:100C900080C7200403020D73C3E52E952C40030288
:100CA0000D73E52CC3952EF52CAB2C152CEB700396
:100CB000020D737582201209B980EEE53324FDF828
:100CC0008833860308860408860518188B248C252B
:100CD0008D26E526FB30E7047A438013EB546060F1
:100CE000047A50800AEB30E6047A4980027A588A06
:100CF00082C0021209B975823A1209B9758230129E
:100D000009B97582781209B9D002BA4902800BBAC2
:100D1000500280068525821209EC8524821209EC96
:100D20008051D208752B0A804A752B088045752B97
:100D30000A8040752B10803BD2018037D20280336D
:100D4000D203802FE53324FDF88833860308860418
:100D500008860518188B248C258D268B828C838D14
:100D6000F0E52912100AA3E52A12100A80058A82EA
:100D70001209B920010620020330035AE53324FC8E
:100D8000F88833860308860408860508860618183E
:100D9000188B248C258D268E277524C57525007506
:100DA000268085243485253585263674012534FE34
:100DB000E43535FFAB368E248F258B26853482852E
:100DC00035838536F0120FEEFBFA7003020A4D8A66
:100DD000821209B980CCE52B7003020A4D7B4030AA
:100DE000092BE53314F88833E6FC3395E0FDFEFF6C
:100DF0008C248D258E268F2720085EAC247D007ED6
:100E0000007F008C248D258E268F27804C300A1F72
:100E1000E53324FCF888338604088605088606082E
:100E200086071818188C248D258E268F27802AE592
:100E30003324FEF88833860408860518ED3395E0E0
:100E4000FEFF8C248D258E268F2720080CAC24AD28
:100E5000257E007F008E268F27300B43E524452515
:100E60004526452760397408B52B0C758230C003C0
:100E70001209B9D00380287410B52B23758230C0B5
:100E8000031209B9D00330000C758278C00312092F
:100E9000B9D003800A758258C0031209B9D0033053
:100EA0000825AC24AD25AE26E527FF30E717C3E4BF
:100EB0009CFCE49DFDE49EFEE49FFF8C248D258E2A
:100EC000268F278002C208752E00D20C8B00752851
:100ED00000C000120A03D000200C0DE528C4FCE677
:100EE000FD4CF61888038002A628052EB20CE524D6
:100EF00045254526452770D68803E52C7003752CBB
:100F00000120051A200417E52E04FCC3952C500E71
:100F1000758220C0031209B9D003152C80E930086E
:100F20000E75822DC0031209B9D003152C8024E55B
:100F30002E602030060E75822BC0031209B9D00333
:100F4000152C800F30070C758220C0031209B9D010
:100F500003152C20041EAC2C152CC3E52E9C502709
:100F60003005047C3080027C208C82C0031209B9D9
:100F7000D00380E2C3E52E952C5009E52CC3952EB5
:100F8000F52C8003752C008B00AB2E152EEB602208
:100F9000B20C200C0A08E6C4540FFB8B288007868D
:100FA00003740F5BF528852882C0001209D3D00096
:100FB00080D7200403020A4DAB2C152CEB700302E2
:100FC0000A4D7582201209B980EE8A821209B9028F
:100FD0000A4D852982852A8322AA82BA0A08109995
:100FE0000280FB75990D10990280FB8A992220F7E7
:100FF0001430F6148883A88220F507E6A883758349
:101000000022E280F7E49322E02220F71030F6116C
:101010008883A88220F507F6A88375830022F280D2
:10102000F7F022AA82AB83ACF07D007E008A828B2F
:10103000838CF0120FEEFFA3AA82AB83EF60070D43
:10104000BD00EA0E80E78D828E8322000000000042
:00000001FF
