:1000000002000E00000000000000000201EA7581FD
:100010003C120193E582600302007A780079007A4D
:10002000007B007C007D00EC4D601C88828983E4AD
:1000300093A3A882A9838A828B83F0A3AA82AB832D
:100040001CBCFFE31D80E07582007583007C007D91
:1000500000EC4D600AE4F0A31CBCFFF51D80F275B6
:1000600082007583007C007D00EC4D600AE4F0A303
:100070001CBCFFF51D80F212017A1208C880FE2018
:100080000A204265666F7265205475726E696E67EC
:1000900021212121212121212120526967687420F9
:1000A000566F6C746167652052656164696E673A6A
:1000B0002025752C204C65667420566F6C74616722
:1000C000652052656164696E673A20257500200AD3
:1000D000204669727374204C6F6F70205269676894
:1000E0007420566F6C746167652052656164696E37
:1000F000673A2025752C204C65667420566F6C7409
:100100006167652052656164696E673A20257500F4
:100110000D00200A205365636F6E64204C6F6F7072
:1001200020526967687420566F6C7461676520524D
:10013000656164696E673A2025752C204C6566748C
:1001400020566F6C746167652052656164696E67E3
:100150003A202575006D616465207468726F75675B
:100160006820626F7468206C6F6F7073000A003CC7
:100170004E4F20464C4F41543E0075115E751201A2
:1001800075139675140075154B75160075171E7549
:1001900018002275E60075E70075D60075D7007562
:1001A000CE0075CF0075C60075C700758E1175BE7F
:1001B0000075BF00438780759852759B00759AFA49
:1001C000759B1EC28C75890175F4FF758CFF75F2E5
:1001D00048758A48D28CD2A9D2AF750900750A0039
:1001E000750D00750E0075820022C0E0C0D075D07C
:1001F000000509E509249C5003750900C3E509952C
:100200000B9292050AE50A249C5003750A00C3E587
:100210000A950C9294050DE50D249C5003750D0074
:10022000C3E50D950F9290050EE50E249C500375C5
:100230000E00C3E50E95109291D0D0D0E032750F2C
:100240002575100022750F0075102D22750B29756C
:100250000C0022750B00750C2F22750F0075100015
:1002600022750B00750C00227A0179F878B8D8FE57
:10027000D9FADAF622227A147B00C002C0031202F5
:1002800068D003D0021ABAFF011BEA4B70EC22754A
:1002900082020205EB7582030205EB12025A02028A
:1002A0006112028FAA82AB83C002C003120295AC16
:1002B00082AD83D003D002C002C003C004C005C019
:1002C00004C005C002C003747FC0E07400C0E074C5
:1002D00080C0E012094EE58124F9F581D005D004F3
:1002E000D003D002EAC39CFEEB9DFFC374329EE4B0
:1002F0009F5069C3EC9AED9B505D1204D312028F9C
:10030000AA82AB83C002C003120295AC82AD83D037
:1003100003D002C002C003C004C005C004C005C0B1
:1003200002C00374CEC0E07400C0E07480C0E0126C
:10033000094EE58124F9F5817410C0E07401C0E034
:100340007480C0E012094E158115811581D005D049
:1003500004D003D002809C12029B8076ECC39AFEEC
:10036000ED9BFFC3741E9EE49F5067C3EA9CEB9D08
:10037000505D1204D012028FAA82AB83C002C00368
:10038000120295AC82AD83D003D002C002C003C07C
:1003900004C005C004C005C002C0037412C0E074EC
:1003A00001C0E07480C0E012094EE58124F9F581B6
:1003B0007410C0E07401C0E07480C0E012094E15F2
:1003C0008115811581D005D004D003D002809C1204
:1003D000029B7455C0E07401C0E07480C0E0120953
:1003E0004E15811581158122AA82AB837C007D0088
:1003F000C3EC9AED64808BF063F08095F0501AC0E6
:1004000002C003C004C00512041AD005D004D003F2
:10041000D0020CBC00DA0D80D7227A027905785C14
:10042000D8FED9FADAF622227A1479F878B8D8FE0A
:10043000D9FADAF622227A0179F878B8D8FED9FA10
:10044000DAF622227A0C79F878B8D8FED9FADAF6F8
:1004500022227A1579F878B8D8FED9FADAF622226B
:100460007A0D79F878B8D8FED9FADAF622227A012C
:1004700079F878B8D8FED9FADAF6222212024502C3
:10048000025312047C12042812029B120436120436
:10049000D012044412047C12045212029B1204D3A0
:1004A00012046012029B02046E1204D01204441261
:1004B00004D612045212029B1204D31204441204F2
:1004C000D612042812029B12046012029B02046ED0
:1004D00002023E02024C12023E02024CC3E4951993
:1004E000E46480851AF063F08095F0500915197462
:1004F000FFB51902151A22C3E5199403E51A6480A1
:10050000948050080519E4B51902051A221204D383
:100510009007D01203E812029BE51B7003751B01C4
:100520007401B51B03751B00221204D09007D01272
:1005300003E812029BE51B7003751B017401B51BD8
:1005400003751B0022AA82AB837C00C002C003C0DB
:10055000041205CDD004D003D0027D00BD080050A8
:1005600054758202C002C003C004C0051205EBAE80
:1005700082AF83D005D004D003D002C3EE9AEF64DB
:10058000808BF063F08095F050108DF005F07401D1
:10059000800225E0D5F0FBFE80027E00EE4204C022
:1005A00002C003C004C0051205BFD005D004D003AB
:1005B000D0020D80A7C0041205CDD0048C82227A0F
:1005C0000279F878B8D8FED9FADAF622227A0379D5
:1005D000F878B8D8FED9FADAF62222AA8253C47F74
:1005E0008AC5748055C4FABA80F822AA8253C3BF60
:1005F00075C33F43C340C2C174184AF5821205DB7C
:100600007A0A7B001ABAFF011BEA4B70F775825514
:100610001205DB743F55C5FB7A00758255C002C0D8
:10062000031205DBD003D002D2C174F055C5FC7DA6
:1006300000EC2AFAED3BC4CAC4540F6ACA540FCA6C
:100640006ACA8A82F5832212024C12027612029B37
:1006500012027612025312027612029B12027612D4
:10066000023E12027612029B12027612024512021A
:100670007612029B12027680CE12028FAA82AB8380
:10068000C002C003120295AC82AD83D003D002E554
:100690001B60030207A3E5192519FEE51A33EE24B2
:1006A00011F88606088607EAC39EF582EB9FF5835C
:1006B000C002C003C004C00512092AAE82AF83D0B5
:1006C00005D004D003D002C3EE9414EF648094806C
:1006D0004050E5192519FEE51A33EE2411F8860677
:1006E000088607C3EE9AEF9B5013C002C003C004F4
:1006F000C005120245D005D004D003D002E519256B
:1007000019FEE51A33EE2411F88606088607C3EAB7
:100710009EEB9F5018C004C00512023ED005D004C5
:10072000800BC004C00512029BD005D004E519253A
:1007300019FEE51A33EE2411F88606088607ECC385
:100740009EF582ED9FF583C004C00512092AAE8292
:10075000AF83D005D004C3EE9414EF64809480403E
:100760003FE5192519FEE51A33EE2411F88606082F
:100770008607C3EE9CEF9D500BC004C005120253C8
:10078000D005D004E5192519FEE51A33EE2411F839
:100790008606088607C3EC9EED9F40012202024CAC
:1007A00002029BE5192519FEE51A33EE2411F8869D
:1007B00006088607EAC39EF582EB9FF583C002C058
:1007C00003C004C00512092AAE82AF83D005D0044D
:1007D000D003D002C3EE9414EF648094804050E5BF
:1007E000192519FEE51A33EE2411F8860608860746
:1007F000C3EA9EEB9F5013C002C003C004C00512A1
:100800000245D005D004D003D002E5192519FEE534
:100810001A33EE2411F88606088607C3EE9AEF9B7A
:100820005018C004C00512023ED005D004800BC091
:1008300004C00512029BD005D004E5192519FAE57C
:100840001A33EA2411F88602088603ECC39AF5826B
:10085000ED9BF583C004C00512092AAA82AB83D0A0
:1008600005D004C3EA9414EB64809480403EE519FB
:100870002519FAE51A33EA2411F88602088603C31B
:10088000EC9AED9B500BC004C005120253D005D06A
:1008900004E5192519FAE51A33EA2411F886020845
:1008A0008603C3EA9CEB9D500602024C02029B2287
:1008B00012050D1202761202761202761205291224
:1008C0000276120276020276751901E4F51A751B9A
:1008D00000746DC0E07401C0E07480C0E012094E85
:1008E00015811581158112067912028FAA82AB83B8
:1008F000C3EA9484EB940340ED12029B90038412AC
:100900000545AA82BAFD07C0021204F7D002BAF563
:1009100007C0021204DCD002BAD507C00212050DCE
:10092000D002BA55C112048280BCE58330E709F4D5
:10093000F583E582F4F582A322020F8F858230854C
:10094000833185F032851C339009390209F8C008DB
:10095000858108E50824FBF533E50824FBF886309B
:100960000886310886329009391209F8D00822AA7F
:10097000827480C0E07409C0E0C022C0238A822251
:100980000529E4B52902052A22AA8274302AFA240C
:10099000C6500A74072AFA3000034302208A8202F2
:1009A000096FE582FAC4540FF582C002120989D09A
:1009B00002740F5AF582020989AA24AB25AC26AD30
:1009C00027AE28752F20EE2EFEED235401FF4206A0
:1009D000EA2AFAEB33FBEC33FCED33FDC3EE952B47
:1009E0004008EEC3952BFE430201D52FD98A248BF4
:1009F000258C268D278E2822858222858323E4F567
:100A000029F52AAA30AB31AC328A828B838CF01262
:100A10000FA4FD74012AF530E43BF5318C32EDFA78
:100A20007003020F88BA25028003020F80C204C23D
:100A300005C206C207C208C209C20AC20BC201C26D
:100A400002C203752B00752C00752DFFAB30AC3145
:100A5000AD328B828C838DF0120FA4FAA3AB82ACE3
:100A6000838B308C318D32BA25078A8212096F80D0
:100A7000928A06BE3000402E8A06EE24C6402774B5
:100A8000FFB52D13E52C75F00AA4FEEA24D02EF54F
:100A90002C70BFD20580BBE52D75F00AA4FEEA24B8
:100AA000D02EF52D80ACBA2E0A74FFB52DA4752D6D
:100AB00000809F8A06BE6100400E8A06EE248540B3
:100AC000075302DFD2008002C200BA20028075BA4A
:100AD0002303020B53BA2A03020B58BA2B02805F7E
:100AE000BA2D028055BA4202805FBA4303020B9DC1
:100AF000BA4403020CD8BA4503020CF2BA46030208
:100B00000CEEBA4703020CF6BA4903020CD8BA4CF1
:100B100002803BBA4E03020CFABA4F03020CDFBA52
:100B20005003020C71BA5303020BC1BA5503020CF5
:100B3000E4BA5803020CE9020D24D204020A52D28C
:100B400006020A52D207020A52D209020A52D20AF5
:100B5000020A52D20B020A5274FFB52D2030090B43
:100B6000E53314F88833862C020A52E53324FEF864
:100B700088338606088607188E2C020A5230090B25
:100B8000E53314F88833862D020A52E53324FEF843
:100B900088338606088607188E2D020A5230090A05
:100BA000E53314F888338602800FE53324FEF88895
:100BB000338603088604188B028A8212096F020D9D
:100BC00029E53324FDF88833860308860408860562
:100BD00018188B248C258D268B828C838DF0120F18
:100BE000D9AB82AC838B2E74FFB52D03852E2D20BF
:100BF000041DC3E52E952C5016E52CC3952EF52C1F
:100C0000AB2C152CEB600875822012096F80F185E2
:100C100024828525838526F0120FA4FBFA6029AB78
:100C20002D152DC3E464808BF063F08095F050188F
:100C30008A8212096FAB24AC25AD260BBB00010CD8
:100C40008B248C258D2680C7200403020D29C3E543
:100C50002E952C4003020D29E52CC3952EF52CABC7
:100C60002C152CEB7003020D2975822012096F8060
:100C7000EEE53324FDF888338603088604088605EC
:100C800018188B248C258D26E526FB30E7047A4343
:100C90008013EB546060047A50800AEB30E6047AEB
:100CA0004980027A588A82C00212096F75823A120C
:100CB000096F75823012096F75827812096FD00240
:100CC000BA4902800BBA500280068525821209A219
:100CD0008524821209A28051D208752B0A804A7598
:100CE0002B088045752B0A8040752B10803BD20164
:100CF0008037D2028033D203802FE53324FDF88879
:100D000033860308860408860518188B248C258DE5
:100D1000268B828C838DF0E529120FC0A3E52A1261
:100D20000FC080058A8212096F200106200203305D
:100D3000035AE53324FCF8883386030886040886C2
:100D4000050886061818188B248C258D268E277585
:100D5000246F7525017526808524348525358526E3
:100D60003674012534FEE43535FFAB368E248F25ED
:100D70008B268534828535838536F0120FA4FBFAE5
:100D80007003020A038A8212096F80CCE52B70037C
:100D9000020A037B3C30092BE53314F88833E6FC68
:100DA0003395E0FDFEFF8C248D258E268F272008AD
:100DB0005EAC247D007E007F008C248D258E268FE6
:100DC00027804C300A1FE53324FCF888338604085A
:100DD00086050886060886071818188C248D258E27
:100DE000268F27802AE53324FEF888338604088678
:100DF0000518ED3395E0FEFF8C248D258E268F2778
:100E000020080CAC24AD257E007F008E268F273075
:100E10000B43E52445254526452760397408B52B45
:100E20000C758230C00312096FD00380287410B58E
:100E30002B23758230C00312096FD00330000C756C
:100E40008278C00312096FD003800A758258C003EC
:100E500012096FD003300825AC24AD25AE26E52756
:100E6000FF30E717C3E49CFCE49DFDE49EFEE49F95
:100E7000FF8C248D258E268F278002C208752E00B8
:100E8000D20C8B00752800C0001209B9D000200CCC
:100E90000DE528C4FCE6FD4CF61888038002A62860
:100EA000052EB20CE52445254526452770D6880336
:100EB000E52C7003752C0120051A200417E52E047B
:100EC000FCC3952C500E758220C00312096FD0030D
:100ED000152C80E930080E75822DC00312096FD0E1
:100EE00003152C8024E52E602030060E75822BC061
:100EF0000312096FD003152C800F30070C75822068
:100F0000C00312096FD003152C20041EAC2C152C25
:100F1000C3E52E9C50273005047C3080027C208C59
:100F200082C00312096FD00380E2C3E52E952C50D6
:100F300009E52CC3952EF52C8003752C008B00AB96
:100F40002E152EEB6022B20C200C0A08E6C4540FBA
:100F5000FB8B2880078603740F5BF528852882C0E9
:100F600000120989D00080D7200403020A03AB2CA9
:100F7000152CEB7003020A0375822012096F80EEB4
:100F80008A8212096F020A03852982852A8322AA8E
:100F900082BA0A0810990280FB75990D1099028097
:100FA000FB8A992220F71430F6148883A88220F552
:100FB00007E6A88375830022E280F7E49322E0220B
:100FC00020F71030F6118883A88220F507F6A88351
:100FD00075830022F280F7F022AA82AB83ACF07D09
:100FE000007E008A828B838CF0120FA4FFA3AA825A
:100FF000AB83EF60070DBD00EA0E80E78D828E8324
:1010000022000000000000000000000000000000BE
:00000001FF
