:1000000002000E00000000000000000202177581CF
:10001000481201C0E582600302007A780079007A14
:10002000007B007C007D00EC4D601C88828983E4AD
:1000300093A3A882A9838A828B83F0A3AA82AB832D
:100040001CBCFFE31D80E07582007583007C007D91
:1000500000EC4D600AE4F0A31CBCFFF51D80F275B6
:1000600082007583007C007D00EC4D600AE4F0A303
:100070001CBCFFF51D80F212018F1208F480FE20D7
:100080000A204265666F7265205475726E696E67EC
:1000900021212121212121212120526967687420F9
:1000A000566F6C746167652052656164696E673A6A
:1000B0002025752C204C65667420566F6C74616722
:1000C000652052656164696E673A20257500200AD3
:1000D000204669727374204C6F6F70205269676894
:1000E0007420566F6C746167652052656164696E37
:1000F000673A2025752C204C65667420566F6C7409
:100100006167652052656164696E673A20257500F4
:100110000D00200A205365636F6E64204C6F6F7072
:1001200020526967687420566F6C7461676520524D
:10013000656164696E673A2025752C204C6566748C
:1001400020566F6C746167652052656164696E67E3
:100150003A202575006D616465207468726F75675B
:100160006820626F7468206C6F6F707300526967EB
:1001700068743A20257520204C6566743A202575F0
:100180000A000A003C4E4F20464C4F41543E007539
:100190002A96752B00752C4B752D00752E1E752F0C
:1001A0000075301475310075321E753300753414C6
:1001B00075350075360A75370075380575390022B2
:1001C00075E60075E70075D60075D70075CE007529
:1001D000CF0075C60075C700758E1175BE0075BF5E
:1001E00000438780759852759B00759AFA759B1E1F
:1001F000C28C75890175F4FF758CFF75F248758A9C
:1002000048D28CD2A9D2AF75220075230075260082
:1002100075270075820022C0E0C0D075D00005228D
:10022000E522249C5003752200C3E5229524929276
:100230000523E523249C5003752300C3E52395255E
:1002400092940526E526249C5003752600C3E526D6
:10025000952892900527E527249C5003752700C315
:10026000E52795299291D0D0D0E0327528337529B1
:1002700000227528007529332275242F7525002248
:1002800075240075252F22752800752900227524F4
:1002900000752500227A0179F878B8D8FED9FADA03
:1002A000F622227A147B00C002C003120295D0030A
:1002B000D0021ABAFF011BEA4B70EC2275820202CF
:1002C000066475820302066412028702028E12021D
:1002D000BCAA82AB83C002C0031202C2AC82AD834F
:1002E000D003D002C002C003C004C005C004C005D2
:1002F000C002C003747FC0E07400C0E07480C0E03E
:1003000012098AE58124F9F581D005D004D003D003
:1003100002EAC39CFEEB9DFFC374329EE49F5069CA
:10032000C3EC9AED9B505D12053C1202BCAA82AB55
:1003300083C002C0031202C2AC82AD83D003D002DC
:10034000C002C003C004C005C004C005C002C00391
:1003500074CEC0E07400C0E07480C0E012098AE589
:100360008124F9F5817410C0E07401C0E07480C08C
:10037000E012098A158115811581D005D004D003BA
:10038000D002809C1202C88076ECC39AFEED9BFFDF
:10039000C3741E9EE49F5067C3EA9CEB9D505D12A0
:1003A00005391202BCAA82AB83C002C0031202C28A
:1003B000AC82AD83D003D002C002C003C004C0052C
:1003C000C004C005C002C0037412C0E07401C0E0E4
:1003D0007480C0E012098AE58124F9F5817410C0A7
:1003E000E07401C0E07480C0E012098A15811581B3
:1003F0001581D005D004D003D002809C1202C874AD
:1004000055C0E07401C0E07480C0E012098A158113
:100410001581158122AA82AB837C007D00C3EC9AF2
:10042000ED64808BF063F08095F0501AC002C00339
:10043000C004C005120447D005D004D003D0020C7C
:10044000BC00DA0D80D7227A027905785CD8FED913
:10045000FADAF622227A1479F878B8D8FED9FADADC
:10046000F622227A0179F878B8D8FED9FADAF6229B
:10047000227A0C79F878B8D8FED9FADAF622227AFC
:100480001579F878B8D8FED9FADAF622227A0D79F9
:10049000F878B8D8FED9FADAF622227A0179F87813
:1004A000B8D8FED9FADAF6222212027202028012BB
:1004B000053F9005141204151202C8120279900328
:1004C000E812041512026B9001F41204151202C80E
:1004D00012026B9003D91204151202C81202A31261
:1004E00002A31202A31202A31202729003D91204F1
:1004F000151202809002581204151202C8120280CE
:100500009003E812041512027290051412041502E9
:1005100002C812053912047112053F12047F12023B
:10052000C812053C12047112053F1204551202C88C
:1005300012048D1202C802049B02026B020279129D
:10054000026B020279C3E4953AE46480853BF06370
:10055000F08095F05009153A74FFB53A02153B2228
:10056000C3E53A9403E53B648094805008053AE47F
:10057000B53A02053B221202C812028012026B90A9
:1005800004FD1204151202C8E53C7004753C0122FA
:10059000753C00221202C81202721202799004FD08
:1005A0001204151202C8E53C7004753C0122753C2A
:1005B0000022AA82AB83C2AFC290C291C292C294FF
:1005C0007C00C002C003C004120646D004D003D091
:1005D000027D00BD08005054758202C002C003C0F5
:1005E00004C005120664AE82AF83D005D004D003E8
:1005F000D002C3EA9EEB64808FF063F08095F050E8
:10060000108DF005F07401800225E0D5F0FBFE802E
:10061000027E00EE4204C002C003C004C005120600
:1006200038D005D004D003D0020D80A7C004120634
:1006300046D004D2AF8C82227A0279967896D8FE80
:10064000D9FADAF622227A0379967896D8FED9FA80
:10065000DAF62222AA8253C47F8AC5748055C4FA6E
:10066000BA80F822AA8253C3BF75C33F43C340C2B6
:10067000C174184AF5821206547A0A7B001ABAFF2E
:10068000011BEA4B70F7758255120654743F55C52D
:10069000FB7A00758255C002C003120654D003D005
:1006A00002D2C174F055C5FC7D00EC2AFAED3BC4C2
:1006B000CAC4540F6ACA540FCA6ACA8A82F583220E
:1006C0001202A31202A31204AF1202A31202A38009
:1006D000F51202BC85823D85833E1202C285823FAF
:1006E000858340C03FC040C03DC03E746DC0E074D3
:1006F00001C0E07480C0E012098AE58124F9F58127
:10070000E53C60030207F7E53A253AFEE53B33EEA8
:10071000242AF88606088607E53DC39EF582E53E55
:100720009FF583120966AE82AF83853A41E53BC5EA
:100730004125E0C54133F542E5412432F8860408FD
:100740008605C3EE9CEF9D4035E541242AF88604DA
:10075000088605C3EC953DED953E5003120272E507
:100760003A253AFCE53B33EC242AF8860408860552
:10077000C3E53D9CE53E9D500812026B80031202CA
:10078000C8E53A253AFCE53B33EC242AF886040810
:100790008605E53FC39CF582E5409DF58312096619
:1007A000858241858342E53A253AFEE53B33FFEEFB
:1007B0002432F88604088605C3E5419CE5429D4045
:1007C00033EE242AF88604088605C3EC953FED95A0
:1007D000405003120280E53A253AFCE53B33EC2415
:1007E0002AF88604088605C3E53F9CE5409D400144
:1007F000220202790202C8E53A253AFCE53B33ECD5
:10080000242AF88604088605E53DC39CF582E53E6A
:100810009DF583120966AC82AD83E53A253AFEE583
:100820003B33FFEE2432F88602088603C3EC9AEDD0
:100830009B4034EE242AF88602088603C3E53D9ADD
:10084000E53E9B5003120272E53A253AFAE53B3346
:10085000EA242AF88602088603C3EA953DEB953E12
:10086000500812026B80031202C8E53A253AFAE5F5
:100870003B33EA242AF88602088603E53FC39AF54B
:1008800082E5409BF583120966AA82AB83E53A258F
:100890003AFCE53B33FDEC2432F88606088607C3B4
:1008A000EA9EEB9F4032EC242AF88602088603C3B6
:1008B000E53F9AE5409B5003120280E53A253AFA5B
:1008C000E53B33EA242AF88602088603C3EA953F0B
:1008D000EB954050060202790202C82212057612F8
:1008E00002A31202A31202A31205941202A312027F
:1008F000A30202A3753A01E4F53B753C007482C083
:10090000E07401C0E07480C0E012098A158115818D
:1009100015811206D11202BCAA82AB83C3EA940AE3
:10092000EB940050ED1202C2AA82AB83C3EA940A90
:10093000EB940050DD1202C890000A1205B2AA82A0
:10094000BAFD07C002120560D002BAF507C0021254
:100950000545D002BAD507C002120576D002BA8486
:10096000B11204AF80ACE58330E709F4F583E5828A
:10097000F4F582A322020FCB85821885831985F0B6
:100980001A85091B900975020A34C008858108E59B
:100990000824FBF51BE50824FBF8861808861908CF
:1009A000861A900975120A34D00822AA8274BCC033
:1009B000E07409C0E0C00AC00B8A82220511E4B5C8
:1009C0001102051222AA8274302AFA24C6500A742F
:1009D000072AFA3000034302208A820209ABE5822B
:1009E000FAC4540FF582C0021209C5D002740F5A1E
:1009F000F5820209C5AA0CAB0DAC0EAD0FAE107599
:100A00001720EE2EFEED235401FF4206EA2AFAEBF0
:100A100033FBEC33FCED33FDC3EE95134008EEC31E
:100A20009513FE430201D517D98A0C8B0D8C0E8DC0
:100A30000F8E102285820A85830BE4F511F512AA28
:100A400018AB19AC1A8A828B838CF0120FE0FD74FC
:100A5000012AF518E43BF5198C1AEDFA7003020F20
:100A6000C4BA25028003020FBCC204C205C206C27A
:100A700007C208C209C20AC20BC201C202C2037580
:100A800013007514007515FFAB18AC19AD1A8B82E5
:100A90008C838DF0120FE0FAA3AB82AC838B188CA1
:100AA000198D1ABA25078A821209AB80928A06BE6E
:100AB0003000402E8A06EE24C6402774FFB5151379
:100AC000E51475F00AA4FEEA24D02EF51470BFD206
:100AD0000580BBE51575F00AA4FEEA24D02EF515B5
:100AE00080ACBA2E0A74FFB515A4751500809F8AD4
:100AF00006BE6100400E8A06EE248540075302DFE1
:100B0000D2008002C200BA20028075BA2303020B11
:100B10008FBA2A03020B94BA2B02805FBA2D02808F
:100B200055BA4202805FBA4303020BD9BA440302AA
:100B30000D14BA4503020D2EBA4603020D2ABA4718
:100B400003020D32BA4903020D14BA4C02803BBABB
:100B50004E03020D36BA4F03020D1BBA5003020CAE
:100B6000ADBA5303020BFDBA5503020D20BA580368
:100B7000020D25020D60D204020A8ED206020A8EF0
:100B8000D207020A8ED209020A8ED20A020A8ED235
:100B90000B020A8E74FFB5152030090BE51B14F803
:100BA000881B8614020A8EE51B24FEF8881B860625
:100BB000088607188E14020A8E30090BE51B14F8FC
:100BC000881B8615020A8EE51B24FEF8881B860604
:100BD000088607188E15020A8E30090AE51B14F8DC
:100BE000881B8602800FE51B24FEF8881B860308FD
:100BF0008604188B028A821209AB020D65E51B245C
:100C0000FDF8881B860308860408860518188B0CD7
:100C10008C0D8D0E8B828C838DF0121015AB82ACF7
:100C2000838B1674FFB5150385161520041DC3E5C7
:100C30001695145016E514C39516F514AB14151437
:100C4000EB60087582201209AB80F1850C82850D5E
:100C500083850EF0120FE0FBFA6029AB151515C362
:100C6000E464808BF063F08095F050188A8212095A
:100C7000ABAB0CAC0DAD0E0BBB00010C8B0C8C0D9B
:100C80008D0E80C7200403020D65C3E51695144040
:100C900003020D65E514C39516F514AB141514EB9A
:100CA0007003020D657582201209AB80EEE51B24EE
:100CB000FDF8881B860308860408860518188B0C27
:100CC0008C0D8D0EE50EFB30E7047A438013EB5458
:100CD0006060047A50800AEB30E6047A4980027A38
:100CE000588A82C0021209AB75823A1209AB75822A
:100CF000301209AB7582781209ABD002BA49028072
:100D00000BBA50028006850D821209DE850C821214
:100D100009DE8051D20875130A804A751308804590
:100D200075130A8040751310803BD2018037D202C0
:100D30008033D203802FE51B24FDF8881B8603082F
:100D4000860408860518188B0C8C0D8D0E8B828CF2
:100D5000838DF0E511120FFCA3E512120FFC800544
:100D60008A821209AB20010620020330035AE51BD8
:100D700024FCF8881B860308860408860508860676
:100D80001818188B0C8C0D8D0E8E0F750C84750D2C
:100D900001750E80850C1C850D1D850E1E740125A8
:100DA0001CFEE4351DFFAB1E8E0C8F0D8B0E851CBB
:100DB00082851D83851EF0120FE0FBFA7003020A84
:100DC0003F8A821209AB80CCE5137003020A3F7B95
:100DD0004830092BE51B14F8881BE6FC3395E0FD31
:100DE000FEFF8C0C8D0D8E0E8F0F20085EAC0C7DDF
:100DF000007E007F008C0C8D0D8E0E8F0F804C308E
:100E00000A1FE51B24FCF8881B8604088605088653
:100E1000060886071818188C0C8D0D8E0E8F0F8003
:100E20002AE51B24FEF8881B860408860518ED3386
:100E300095E0FEFF8C0C8D0D8E0E8F0F20080CACF4
:100E40000CAD0D7E007F008E0E8F0F300B43E50C36
:100E5000450D450E450F60397408B5130C75823089
:100E6000C0031209ABD00380287410B51323758218
:100E700030C0031209ABD00330000C758278C00378
:100E80001209ABD003800A758258C0031209ABD097
:100E900003300825AC0CAD0DAE0EE50FFF30E717A3
:100EA000C3E49CFCE49DFDE49EFEE49FFF8C0C8D5E
:100EB0000D8E0E8F0F8002C208751600D20C8B00AB
:100EC000751000C0001209F5D000200C0DE510C40B
:100ED000FCE6FD4CF61888038002A6100516B20C3D
:100EE000E50C450D450E450F70D68803E5147003DB
:100EF00075140120051A200417E51604FCC3951487
:100F0000500E758220C0031209ABD003151480E97E
:100F100030080E75822DC0031209ABD00315148062
:100F200024E516602030060E75822BC0031209AB33
:100F3000D0031514800F30070C758220C0031209EE
:100F4000ABD003151420041EAC141514C3E5169C75
:100F500050273005047C3080027C208C82C0031234
:100F600009ABD00380E2C3E51695145009E514C31C
:100F70009516F51480037514008B00AB161516EB4F
:100F80006022B20C200C0A08E6C4540FFB8B1080C0
:100F9000078603740F5BF510851082C0001209C527
:100FA000D00080D7200403020A3FAB141514EB7065
:100FB00003020A3F7582201209AB80EE8A82120971
:100FC000AB020A3F85118285128322AA82BA0A08DF
:100FD00010990280FB75990D10990280FB8A992265
:100FE00020F71430F6148883A88220F507E6A8833A
:100FF00075830022E280F7E49322E02220F710308C
:10100000F6118883A88220F507F6A883758300224D
:10101000F280F7F022AA82AB83ACF07D007E008ADA
:10102000828B838CF0120FE0FFA3AA82AB83EF6068
:10103000070DBD00EA0E80E78D828E83220000003E
:00000001FF
