:1000000002000E000000000000000002020C7581DA
:100010003C1201B5E582600302007A780079007A2B
:10002000007B007C007D00EC4D601C88828983E4AD
:1000300093A3A882A9838A828B83F0A3AA82AB832D
:100040001CBCFFE31D80E07582007583007C007D91
:1000500000EC4D600AE4F0A31CBCFFF51D80F275B6
:1000600082007583007C007D00EC4D600AE4F0A303
:100070001CBCFFF51D80F212019C12096D80FE2050
:100080000A204265666F7265205475726E696E67EC
:1000900021212121212121212120526967687420F9
:1000A000566F6C746167652052656164696E673A6A
:1000B0002025752C204C65667420566F6C74616722
:1000C000652052656164696E673A20257500200AD3
:1000D000204669727374204C6F6F70205269676894
:1000E0007420566F6C746167652052656164696E37
:1000F000673A2025752C204C65667420566F6C7409
:100100006167652052656164696E673A20257500F4
:100110000D00200A205365636F6E64204C6F6F7072
:1001200020526967687420566F6C7461676520524D
:10013000656164696E673A2025752C204C6566748C
:1001400020566F6C746167652052656164696E67E3
:100150003A202575006D616465207468726F75675B
:100160006820626F7468206C6F6F707300726967CB
:100170006874203D2025752C206C656674203D2018
:1001800025752C20636D64203D202575200A000A0A
:10019000003C4E4F20464C4F41543E0075115E7559
:1001A000120175139675140075154B7516007517A9
:1001B0001E7518002275E60075E70075D60075D724
:1001C0000075CE0075CF0075C60075C700758E111D
:1001D00075BE0075BF00438780759852759B00758A
:1001E0009AFA759B1EC28C75890175F4FF758CFF98
:1001F00075F248758A48D28CD2A9D2AF75090075BC
:100200000A00750D00750E0075820022C0E0C0D096
:1002100075D0000509E509249C5003750900C3E564
:1002200009950B9292050AE50A249C5003750A0071
:10023000C3E50A950C9294050DE50D249C500375B9
:100240000D00C3E50D950F9290050EE50E249C5010
:1002500003750E00C3E50E95109291D0D0D0E03218
:10026000750F2575100022750F0075102D22750B66
:1002700029750C0022750B00750C2F22750F007567
:10028000100022750B00750C00227A0179F878B8FD
:10029000D8FED9FADAF622227A147B00C002C00313
:1002A00012028AD003D0021ABAFF011BEA4B70EC8B
:1002B000227582020205EB7582030205EB12027CB5
:1002C0000202831202B1AA82AB83C002C0031202EF
:1002D000B7AC82AD83D003D002C002C003C004C05B
:1002E00005C004C005C002C003747FC0E07400C034
:1002F000E07480C0E01209F6E58124F9F581D005AB
:10030000D004D003D002EAC39CFEEB9DFFC374323D
:100310009EE49F5069C3EC9AED9B505D1204CF128E
:1003200002B1AA82AB83C002C0031202B7AC82AD95
:1003300083D003D002C002C003C004C005C004C003
:1003400005C002C00374CEC0E07400C0E07480C079
:10035000E01209F6E58124F9F5817410C0E074011A
:10036000C0E07480C0E01209F6158115811581D0B6
:1003700005D004D003D002809C1202BD8076ECC36D
:100380009AFEED9BFFC3741E9EE49F5067C3EA9CD8
:10039000EB9D505D1204CC1202B1AA82AB83C00265
:1003A000C0031202B7AC82AD83D003D002C002C03A
:1003B00003C004C005C004C005C002C0037412C05D
:1003C000E07401C0E07480C0E01209F6E58124F910
:1003D000F5817410C0E07401C0E07480C0E01209BF
:1003E000F6158115811581D005D004D003D0028087
:1003F0009C1202BD7455C0E07401C0E07480C0E07E
:100400001209F615811581158122AA82AB837C0021
:100410007D00C3EC9AED64808BF063F08095F05022
:100420001AC002C003C004C00512043CD005D004A9
:10043000D003D0020CBC00DA0D80D7227A027905F5
:10044000785CD8FED9FADAF622227A1479F878B8EC
:10045000D8FED9FADAF622227A0179F878B8D8FEED
:10046000D9FADAF622227A0C79F878B8D8FED9FAD5
:10047000DAF622227A1579F878B8D8FED9FADAF6BF
:1004800022227A0D79F878B8D8FED9FADAF6222243
:100490007A0179F878B8D8FED9FADAF6222212026F
:1004A00067020275221204CC1204661204D21204EE
:1004B000741202BD1204CF1204661204D212044A4E
:1004C0001202BD1204821202BD02049002026002F6
:1004D000026E12026002026EC3E49519E464808524
:1004E0001AF063F08095F05009151974FFB51902E0
:1004F000151A22C3E5199403E51A64809480500804
:100500000519E4B51902051A221204CF9007D0127A
:10051000040A1202BDE51B7004751B0122751B0045
:10052000221204CC9007D012040A1202BDE51B70FF
:1005300004751B0122751B0022AA82AB83C2AFC2C5
:1005400090C291C292C2947C00C002C003C0041247
:1005500005CDD004D003D0027D00BD0800505475F5
:100560008202C002C003C004C0051205EBAE82AF18
:1005700083D005D004D003D002C3EA9EEB64808F01
:10058000F063F08095F050108DF005F0740180025A
:1005900025E0D5F0FBFE80027E00EE4204C002C0E2
:1005A00003C004C0051205BFD005D004D003D0029B
:1005B0000D80A7C0041205CDD004D2AF8C82227A60
:1005C00002797C78B8D8FED9FADAF622227A037951
:1005D0007C78B8D8FED9FADAF62222AA8253C47FF0
:1005E0008AC5748055C4FABA80F822AA8253C3BF60
:1005F00075C33F43C340C2C174184AF5821205DB7C
:100600007A0A7B001ABAFF011BEA4B70F775825514
:100610001205DB743F55C5FB7A00758255C002C0D8
:10062000031205DBD003D002D2C174F055C5FC7DA6
:1006300000EC2AFAED3BC4CAC4540F6ACA540FCA6C
:100640006ACA8A82F583227A00C00212071E120249
:10065000B1AB82AC83C003C0041202B7AD82AE83DB
:10066000D004D003D002C3ED9414EE9400400302F2
:1006700006F2900014C003C004C005C0061205397C
:10068000AA82D006D005D004D003BAFD17C002C09C
:1006900003C004C005C0061204F3D006D005D00480
:1006A000D003D002BAF517C002C003C004C005C011
:1006B000061204D8D006D005D004D003D002BAD593
:1006C00017C002C003C004C005C006120509D00649
:1006D000D005D004D003D002BA8017C002C003C036
:1006E00004C005C0061204A4D006D005D004D0036F
:1006F000D0028A077800C002C007C000C005C0064B
:10070000C003C004746DC0E07401C0E07480C0E038
:100710001209F6E58124F7F581D00202064912029A
:10072000B1AA82AB83C002C0031202B7AC82AD8310
:10073000D003D002E51B6003020848E5192519FE25
:10074000E51A33EE2411F88606088607EAC39EF5FB
:1007500082EB9FF583C002C003C004C0051209D21A
:10076000AE82AF83D005D004D003D002C3EE941480
:10077000EF648094804050E5192519FEE51A33EEA8
:100780002411F88606088607C3EE9AEF9B5013C023
:1007900002C003C004C005120267D005D004D00314
:1007A000D002E5192519FEE51A33EE2411F8860664
:1007B000088607C3EA9EEB9F5018C004C0051202CA
:1007C00060D005D004800BC004C0051202BDD00566
:1007D000D004E5192519FEE51A33EE2411F8860632
:1007E000088607ECC39EF582ED9FF583C004C00523
:1007F0001209D2AE82AF83D005D004C3EE9414EFB9
:1008000064809480403FE5192519FEE51A33EE24F3
:1008100011F88606088607C3EE9CEF9D500BC004B6
:10082000C005120275D005D004E5192519FEE51A98
:1008300033EE2411F88606088607C3EC9EED9F4030
:10084000012202026E0202BDE5192519FEE51A33E6
:10085000EE2411F88606088607EAC39EF582EB9F10
:10086000F583C002C003C004C0051209D2AE82AF36
:1008700083D005D004D003D002C3EE9414EF64807B
:1008800094804050E5192519FEE51A33EE2411F83D
:100890008606088607C3EA9EEB9F5013C002C0037A
:1008A000C004C005120267D005D004D003D002E511
:1008B000192519FEE51A33EE2411F8860608860775
:1008C000C3EE9AEF9B5018C004C005120260D00519
:1008D000D004800BC004C0051202BDD005D004E5D1
:1008E000192519FAE51A33EA2411F8860208860355
:1008F000ECC39AF582ED9BF583C004C0051209D2C2
:10090000AA82AB83D005D004C3EA9414EB6480942C
:1009100080403EE5192519FAE51A33EA2411F886D4
:1009200002088603C3EC9AED9B500BC004C005126D
:100930000275D005D004E5192519FAE51A33EA2421
:1009400011F88602088603C3EA9CEB9D500602025A
:100950006E0202BD221205091202981202981202BA
:100960009812052112029812029802029875190134
:10097000E4F51A751B00748FC0E07401C0E0748048
:10098000C0E01209F615811581158112064712077C
:100990001E1202B1AA82AB83C3EA940AEB94005000
:1009A000ED1202BD90000A120539AA82BAFD07C0F5
:1009B000021204F3D002BAF507C0021204D8D00222
:1009C000BAD507C002120509D002BA80C11204A428
:1009D00080BCE58330E709F4F583E582F4F582A372
:1009E0002202103785823085833185F032851C33B1
:1009F0009009E1020AA0C008858108E50824FBF5FA
:100A000033E50824FBF886300886310886329009E1
:100A1000E1120AA0D00822AA827428C0E0740AC099
:100A2000E0C022C0238A82220529E4B52902052AD2
:100A300022AA8274302AFA24C6500A74072AFA308D
:100A400000034302208A82020A17E582FAC4540F87
:100A5000F582C002120A31D002740F5AF582020ADE
:100A600031AA24AB25AC26AD27AE28752F20EE2E5B
:100A7000FEED235401FF4206EA2AFAEB33FBEC3386
:100A8000FCED33FDC3EE952B4008EEC3952BFE43E2
:100A90000201D52FD98A248B258C268D278E2822DA
:100AA000858222858323E4F529F52AAA30AB31AC6F
:100AB000328A828B838CF012104CFD74012AF5303F
:100AC000E43BF5318C32EDFA7003021030BA2502A6
:100AD0008003021028C204C205C206C207C208C2AF
:100AE00009C20AC20BC201C202C203752B00752CD7
:100AF00000752DFFAB30AC31AD328B828C838DF025
:100B000012104CFAA3AB82AC838B308C318D32BA8D
:100B100025078A82120A1780928A06BE3000402E6C
:100B20008A06EE24C6402774FFB52D13E52C75F018
:100B30000AA4FEEA24D02EF52C70BFD20580BBE5B6
:100B40002D75F00AA4FEEA24D02EF52D80ACBA2E25
:100B50000A74FFB52DA4752D00809F8A06BE610022
:100B6000400E8A06EE248540075302DFD200800241
:100B7000C200BA20028075BA2303020BFBBA2A0313
:100B8000020C00BA2B02805FBA2D028055BA4202D5
:100B9000805FBA4303020C45BA4403020D80BA4594
:100BA00003020D9ABA4603020D96BA4703020D9E40
:100BB000BA4903020D80BA4C02803BBA4E03020DC3
:100BC000A2BA4F03020D87BA5003020D19BA53039C
:100BD000020C69BA5503020D8CBA5803020D91023A
:100BE0000DCCD204020AFAD206020AFAD207020A8D
:100BF000FAD209020AFAD20A020AFAD20B020AFA55
:100C000074FFB52D2030090BE53314F88833862C9A
:100C1000020AFAE53324FEF88833860608860718A8
:100C20008E2C020AFA30090BE53314F88833862D2E
:100C3000020AFAE53324FEF8883386060886071888
:100C40008E2D020AFA30090AE53314F88833860239
:100C5000800FE53324FEF888338603088604188B5A
:100C6000028A82120A17020DD1E53324FDF8883377
:100C7000860308860408860518188B248C258D2683
:100C80008B828C838DF0121081AB82AC838B2E749F
:100C9000FFB52D03852E2D20041DC3E52E952C5068
:100CA00016E52CC3952EF52CAB2C152CEB60087596
:100CB0008220120A1780F18524828525838526F0FB
:100CC00012104CFBFA6029AB2D152DC3E464808B08
:100CD000F063F08095F050188A82120A17AB24ACAA
:100CE00025AD260BBB00010C8B248C258D2680C7DF
:100CF000200403020DD1C3E52E952C4003020DD133
:100D0000E52CC3952EF52CAB2C152CEB7003020DA6
:100D1000D1758220120A1780EEE53324FDF888335E
:100D2000860308860408860518188B248C258D26D2
:100D3000E526FB30E7047A438013EB546060047AC5
:100D400050800AEB30E6047A4980027A588A82C0E1
:100D500002120A1775823A120A17758230120A17A0
:100D6000758278120A17D002BA4902800BBA500273
:100D70008006852582120A4A852482120A4A8051F9
:100D8000D208752B0A804A752B088045752B0A807E
:100D900040752B10803BD2018037D2028033D203C2
:100DA000802FE53324FDF8883386030886040886FF
:100DB0000518188B248C258D268B828C838DF0E56D
:100DC00029121068A3E52A12106880058A82120A87
:100DD0001720010620020330035AE53324FCF8886B
:100DE0003386030886040886050886061818188BBB
:100DF000248C258D268E27752491752501752680D6
:100E000085243485253585263674012534FEE43560
:100E100035FFAB368E248F258B268534828535832E
:100E20008536F012104CFBFA7003020AAB8A82126C
:100E30000A1780CCE52B7003020AAB7B3C30092BF0
:100E4000E53314F88833E6FC3395E0FDFEFF8C248F
:100E50008D258E268F2720085EAC247D007E007FA6
:100E6000008C248D258E268F27804C300A1FE53379
:100E700024FCF88833860408860508860608860759
:100E80001818188C248D258E268F27802AE5332468
:100E9000FEF88833860408860518ED3395E0FEFFDA
:100EA0008C248D258E268F2720080CAC24AD257E22
:100EB000007F008E268F27300B43E52445254526ED
:100EC000452760397408B52B0C758230C003120AAF
:100ED00017D00380287410B52B23758230C00312FD
:100EE0000A17D00330000C758278C003120A17D09D
:100EF00003800A758258C003120A17D003300825F0
:100F0000AC24AD25AE26E527FF30E717C3E49CFCF3
:100F1000E49DFDE49EFEE49FFF8C248D258E268FAC
:100F2000278002C208752E00D20C8B00752800C0E5
:100F300000120A61D000200C0DE528C4FCE6FD4C2F
:100F4000F61888038002A628052EB20CE524452554
:100F50004526452770D68803E52C7003752C0120A3
:100F6000051A200417E52E04FCC3952C500E75823B
:100F700020C003120A17D003152C80E930080E7523
:100F8000822DC003120A17D003152C8024E52E6091
:100F90002030060E75822BC003120A17D003152CC1
:100FA000800F30070C758220C003120A17D003157A
:100FB0002C20041EAC2C152CC3E52E9C502730058C
:100FC000047C3080027C208C82C003120A17D0037C
:100FD00080E2C3E52E952C5009E52CC3952EF52C07
:100FE0008003752C008B00AB2E152EEB6022B20C0B
:100FF000200C0A08E6C4540FFB8B28800786037474
:101000000F5BF528852882C000120A31D00080D7F6
:10101000200403020AABAB2C152CEB7003020AABC5
:10102000758220120A1780EE8A82120A17020AAB12
:10103000852982852A8322AA82BA0A081099028009
:10104000FB75990D10990280FB8A992220F71430C4
:10105000F6148883A88220F507E6A883758300220A
:10106000E280F7E49322E02220F71030F611888323
:10107000A88220F507F6A88375830022F280F7F096
:1010800022AA82AB83ACF07D007E008A828B838CA7
:10109000F012104CFFA3AA82AB83EF60070DBD00D6
:1010A000EA0E80E78D828E8322000000000000009F
:00000001FF
