:1000000002000E22000000000000000201047581C1
:100010003C1200ADE582600302007A780079007A34
:10002000007B007C007D00EC4D601C88828983E4AD
:1000300093A3A882A9838A828B83F0A3AA82AB832D
:100040001CBCFFE31D80E07582007583007C007D91
:1000500000EC4D600AE4F0A31CBCFFF51D80F275B6
:1000600082007583007C007D00EC4D600AE4F0A303
:100070001CBCFFF51D80F212000312058980FE52A0
:10008000696768742044697374616E63653A2025FA
:10009000752053657420446973743A2025750D00EA
:1000A0000A003C4E4F20464C4F41543E0075E6003E
:1000B00075E70075D60075D70075CE0075CF007551
:1000C000C60075C700758E1175BE0075BF004387E9
:1000D00080759852759B00759AFA759B1EC28C7537
:1000E000890175F4FF758CFF75F248758A48D28CCA
:1000F000D2A9D2AF750900750A00750D00750E0002
:1001000075820022C0E0C0D075D0000509E5092441
:100110009C5003750900C3E509950B9292050AE509
:100120000A249C5003750A00C3E50A950C929405B5
:100130000DE50D249C5003750D00C3E50D950F9240
:1001400090050EE50E249C5003750E00C3E50E9538
:10015000109291D0D0D0E032750F4B7510002275FF
:100160000F0075105A22750B52750C0022750B008A
:10017000750C5F22750F0075100022750B00750C51
:1001800000227A0179F878B8D8FED9FADAF6222274
:100190007A147B00C002C003120182D003D0021A7D
:1001A000BAFF011BEA4B70EC227582010204147540
:1001B000820002041412017402017B1201A9AA82B6
:1001C000AB83C002C0031201AFAC82AD83D003D0B9
:1001D00002C3EA9CEB9DE433FE700AC3EC9AED9BEC
:1001E000E433FF600122EE6055C002C003C004C0CA
:1001F00005C007120322D007D005D004D003D002D7
:10020000C3EA9CEB9D5020C0071201A9AA82AB83D0
:10021000D007C002C003C0071201AFAC82AD83D0CB
:1002200007D003D00280D9C002C003C004C005C0FB
:10023000071201B5D007D005D004D003D002EF607B
:1002400035C002C003C004C00512031FD005D0048E
:10025000D003D002C3EC9AED9B50181201A9AA82D8
:10026000AB83C002C0031201AFAC82AD83D003D018
:100270000280E10201B5227A1479F878B8D8FED963
:10028000FADAF622227A0179F878B8D8FED9FADAC1
:10029000F622227A0C79F878B8D8FED9FADAF62262
:1002A000227A1579F878B8D8FED9FADAF622227AC5
:1002B0000D79F878B8D8FED9FADAF622227A0179DF
:1002C000F878B8D8FED9FADAF6222212015F0201D4
:1002D0006D1202CB1202771201B512028512031FB2
:1002E0001202931202CB1202A11201B512032212C2
:1002F00002AF1201B50202BD12031F1202931203D4
:10030000251202A11201B512032212029312032533
:100310001202771201B51202AF1201B50202BD023C
:100320000158020166120158020166C3E49519E4FE
:100330006480851AF063F08095F05009151974FFF8
:10034000B51902151A22C3E5199403E51A648094BD
:100350008050080519E4B51902051A221203221269
:1003600001900201B512031F1201900201B5AA8289
:10037000AB837C00C002C003C0041203F6D004D0DB
:1003800003D0027D00BD08005054758200C002C039
:1003900003C004C005120414AE82AF83D005D0049C
:1003A000D003D002C3EA9EEB64808FF063F08095A7
:1003B000F050108DF005F07401800225E0D5F0FBBF
:1003C000FE80027E00EE4204C002C003C004C005ED
:1003D0001203E8D005D004D003D0020D80A7C004DA
:1003E0001203F6D0048C82227A0279F878B8D8FE0B
:1003F000D9FADAF622227A0379F878B8D8FED9FA4F
:10040000DAF62222AA8253C47F8AC5748055C4FAC0
:10041000BA80F822AA8253C3BF75C33F43C340C208
:10042000C174184AF5821204047A0A7B001ABAFFD2
:10043000011BEA4B70F7758255120404743F55C5D1
:10044000FB7A00758255C002C003120404D003D0A9
:1004500002D2C174F055C5FC7D00EC2AFAED3BC414
:10046000CAC4540F6ACA540FCA6ACA8A82F5832260
:100470001204141205B5AA82AB83ACF0FDC002C011
:1004800003C004C00590A3D775F0A074401205C145
:10049000AA82AB83ACF0FDE58124FCF581E4C0E0E9
:1004A00074C0C0E0747FC0E07444C0E08A828B8373
:1004B0008CF0ED12069AAA82AB83ACF0FDE58124A4
:1004C000FCF5818A828B838CF0ED221202D112011D
:1004D000901202F812019080F2AA82AB83C002C08F
:1004E000031201A9AC82AD83D003D002EBCA25E090
:1004F000CA33FBEA2411F88606088607C002C00347
:10050000C004C005C006C007C004C005747FC0E0B9
:100510007400C0E07480C0E0120679E58124F9F52A
:1005200081D005D004D003D002EA2411F886060851
:10053000860718C3EC9EED9F5018C002C003C00090
:100540001203251201A9AC82AD83D000D003D002E2
:1005500080DBC002C003C004C0051201B5D005D0C5
:1005600004D003D002EA2411F8860208860318C3D7
:10057000EA9CEB9D5010C0001202CB1201A9AC8284
:10058000AD83D00080E30201B57513967514007534
:100590001901E4F51A74A0C0E07400C0E07480C0D2
:1005A000E0120679158115811581851982851A83D6
:1005B0001204D980F5E4AC83AB82FAF9748E020799
:1005C000C212084EBC00030207EDEF60FA30D502FC
:1005D000B2D1E583B4FF03020803E582B4FF03024E
:1005E0000803258340072482400B0207ED2483146F
:1005F0005003020803F582EA8DF0A4A8F0EA8EF019
:10060000A428F8E435F0F9EB8DF0A428E935F0F9E9
:10061000E433CA8FF0A429F9EA35F0FAEBF88EF04A
:10062000A429F9EA35F0FAE433FBEC8DF0A429F9BA
:10063000EA35F0FAE43BFBE88FF0A42AFAEB35F058
:10064000FBE433CCFD8EF0A42AFAEB35F0FBE43C5E
:10065000FCED8FF0A42BFBEC35F0FC20E703120837
:100660001B0207CC020E9C85823085833185F032D7
:10067000851B33900664020905C008858108E508DA
:1006800024FBF533E50824FBF8863008863108861C
:1006900032900664120905D0082212084E30D502A5
:1006A000B2D1BF0009BC0003020810020803BC005D
:1006B000030207EDE583B4FF0BE582B4FF030208F4
:1006C000100207EDE582B4FF03020803C3958350CF
:1006D00007247F400B0207ED248014500302080317
:1006E000C0E0E4CCCBCAF98D1C8E1D8F1EEF54F0F8
:1006F000C4F51F758306851FF0EB84F582E9C4F904
:10070000EAC4FAEBC4FBEC540FC47803D6FC18EB34
:10071000D6FB18EAD6FA8582F0EDA4A8F0FD858212
:10072000F0EEA428FEE435F0F88582F0EFA428FF6F
:10073000E435F0F8E99DF9EA9EFAEB9FFBEC98FCB2
:10074000AD1CAE1DAF1E30E7101582E92DF9EA3E53
:10075000FAEB3FFBE43CFC80EDC082D58398C3E913
:1007600033F9EA33FAEB33FBEC33FCC3E99DEA9E41
:10077000EB9FEC9400B3E413F9D002D0E0C44AFA42
:10078000D003D0E0C44BFBD004D0E0F5F0540FC44C
:100790004CFCD082158230F40FD3EC13FCEB13FB2E
:1007A000EA13FAE913F90582E930E70A74012AFA33
:1007B000E43BFBE43CFC0207E4FCABF0AA83A98227
:1007C000749EC2D1F58212081B0207CCB98003EADD
:1007D00013B34010EA2401FAE43BFBE43CFC500470
:1007E0007C800582BC000EBB000BBA0008E4F5F06B
:1007F000F583F58222A2D1E582138CF092F78B83E8
:100800008A8222E4F583F58275F080F4A2D1132266
:10081000E4F583F58275F0C0747F227804EC7011E2
:10082000E58224F8500AF582E4C9CACBFCD8EF224D
:10083000EC7820058220E713D5820122C3E933F941
:10084000EA33FAEB33FBEC33FCD8EA158222AA82B6
:10085000AB83A2F73392D16002D2F7F582ACF0E518
:100860008124F9F8E6FD08E6FE0886F008E6A2F71E
:100870003392D56002D2F7F583AFF022AA82748D4D
:10088000C0E07408C0E0C022C0238A82220529E4A7
:10089000B52902052A22AA8274302AFA24C6500AEF
:1008A00074072AFA3000034302208A8202087CE59A
:1008B00082FAC4540FF582C002120896D002740F57
:1008C0005AF582020896AA24AB25AC26AD27AE289D
:1008D000752F20EE2EFEED235401FF4206EA2AFA80
:1008E000EB33FBEC33FCED33FDC3EE952B4008EE10
:1008F000C3952BFE430201D52FD98A248B258C2644
:100900008D278E2822858222858323E4F529F52AE6
:10091000AA30AB31AC328A828B838CF0120EB1FDDF
:1009200074012AF530E43BF5318C32EDFA700302A4
:100930000E95BA25028003020E8DC204C205C206BE
:10094000C207C208C209C20AC20BC201C202C20364
:10095000752B00752C00752DFFAB30AC31AD328B93
:10096000828C838DF0120EB1FAA3AB82AC838B30F4
:100970008C318D32BA25078A8212087C80928A06D1
:10098000BE3000402E8A06EE24C6402774FFB52DE7
:1009900013E52C75F00AA4FEEA24D02EF52C70BFC6
:1009A000D20580BBE52D75F00AA4FEEA24D02EF511
:1009B0002D80ACBA2E0A74FFB52DA4752D00809F32
:1009C0008A06BE6100400E8A06EE24854007530267
:1009D000DFD2008002C200BA20028075BA2303026F
:1009E0000A60BA2A03020A65BA2B02805FBA2D0296
:1009F0008055BA4202805FBA4303020AAABA44038E
:100A0000020BE5BA4503020BFFBA4603020BFBBA21
:100A10004703020C03BA4903020BE5BA4C02803BC0
:100A2000BA4E03020C07BA4F03020BECBA50030292
:100A30000B7EBA5303020ACEBA5503020BF1BA5821
:100A400003020BF6020C31D20402095FD20602093E
:100A50005FD20702095FD20902095FD20A02095F69
:100A6000D20B02095F74FFB52D2030090BE533145A
:100A7000F88833862C02095FE53324FEF888338634
:100A800006088607188E2C02095F30090BE533141F
:100A9000F88833862D02095FE53324FEF888338613
:100AA00006088607188E2D02095F30090AE53314FF
:100AB000F888338602800FE53324FEF888338603F6
:100AC000088604188B028A8212087C020C36E533F1
:100AD00024FDF88833860308860408860518188BD9
:100AE000248C258D268B828C838DF0120EE6AB82B2
:100AF000AC838B2E74FFB52D03852E2D20041DC3D2
:100B0000E52E952C5016E52CC3952EF52CAB2C1507
:100B10002CEB600875822012087C80F18524828588
:100B200025838526F0120EB1FBFA6029AB2D152D19
:100B3000C3E464808BF063F08095F050188A8212D1
:100B4000087CAB24AC25AD260BBB00010C8B248CA0
:100B5000258D2680C7200403020C36C3E52E952C74
:100B60004003020C36E52CC3952EF52CAB2C152C2E
:100B7000EB7003020C3675822012087C80EEE533A0
:100B800024FDF88833860308860408860518188B28
:100B9000248C258D26E526FB30E7047A438013EB71
:100BA000546060047A50800AEB30E6047A4980028F
:100BB0007A588A82C00212087C75823A12087C75C3
:100BC000823012087C75827812087CD002BA490201
:100BD000800BBA500280068525821208AF852482D8
:100BE0001208AF8051D208752B0A804A752B0880F5
:100BF00045752B0A8040752B10803BD2018037D27F
:100C0000028033D203802FE53324FDF88833860336
:100C100008860408860518188B248C258D268B825F
:100C20008C838DF0E529120ECDA3E52A120ECD801E
:100C3000058A8212087C20010620020330035AE54F
:100C40003324FCF888338603088604088605088662
:100C5000061818188B248C258D268E277524A275CE
:100C60002500752680852434852535852636740132
:100C70002534FEE43535FFAB368E248F258B268553
:100C800034828535838536F0120EB1FBFA7003028B
:100C900009108A8212087C80CCE52B7003020910AF
:100CA0007B3C30092BE53314F88833E6FC3395E0C0
:100CB000FDFEFF8C248D258E268F2720085EAC2418
:100CC0007D007E007F008C248D258E268F27804C12
:100CD000300A1FE53324FCF88833860408860508AB
:100CE00086060886071818188C248D258E268F27CF
:100CF000802AE53324FEF88833860408860518ED3B
:100D00003395E0FEFF8C248D258E268F2720080C3E
:100D1000AC24AD257E007F008E268F27300B43E567
:100D20002445254526452760397408B52B0C758266
:100D300030C00312087CD00380287410B52B2375B3
:100D40008230C00312087CD00330000C758278C05A
:100D50000312087CD003800A758258C00312087CF5
:100D6000D003300825AC24AD25AE26E527FF30E7BB
:100D700017C3E49CFCE49DFDE49EFEE49FFF8C24ED
:100D80008D258E268F278002C208752E00D20C8BEF
:100D900000752800C0001208C6D000200C0DE52800
:100DA000C4FCE6FD4CF61888038002A628052EB286
:100DB0000CE52445254526452770D68803E52C708B
:100DC00003752C0120051A200417E52E04FCC39599
:100DD0002C500E758220C00312087CD003152C8085
:100DE000E930080E75822DC00312087CD003152C43
:100DF0008024E52E602030060E75822BC003120879
:100E00007CD003152C800F30070C758220C0031294
:100E1000087CD003152C20041EAC2C152CC3E52E09
:100E20009C50273005047C3080027C208C82C003DB
:100E300012087CD00380E2C3E52E952C5009E52CE6
:100E4000C3952EF52C8003752C008B00AB2E152E30
:100E5000EB6022B20C200C0A08E6C4540FFB8B286E
:100E600080078603740F5BF528852882C00012086E
:100E700096D00080D7200403020910AB2C152CEB70
:100E8000700302091075822012087C80EE8A82129B
:100E9000087C020910852982852A8322AA82BA0A3F
:100EA0000810990280FB75990D10990280FB8A99B0
:100EB0002220F71430F6148883A88220F507E6A8CC
:100EC0008375830022E280F7E49322E02220F7106A
:100ED00030F6118883A88220F507F6A88375830071
:100EE00022F280F7F022AA82AB83ACF07D007E0074
:100EF0008A828B838CF0120EB1FFA3AA82AB83EFA0
:100F000060070DBD00EA0E80E78D828E832200000F
:00000001FF
