:1000000002000E22000000000000000201047581C1
:10001000401200ADE582600302007A780079007A30
:10002000007B007C007D00EC4D601C88828983E4AD
:1000300093A3A882A9838A828B83F0A3AA82AB832D
:100040001CBCFFE31D80E07582007583007C007D91
:1000500000EC4D600AE4F0A31CBCFFF51D80F275B6
:1000600082007583007C007D00EC4D600AE4F0A303
:100070001CBCFFF51D80F212000312065780FE52D1
:10008000696768742044697374616E63653A2025FA
:10009000752053657420446973743A2025750D00EA
:1000A0000A003C4E4F20464C4F41543E0075E6003E
:1000B00075E70075D60075D70075CE0075CF007551
:1000C000C60075C700758E1175BE0075BF004387E9
:1000D00080759852759B00759AFA759B1EC28C7537
:1000E000890175F4FF758CFF75F248758A48D28CCA
:1000F000D2A9D2AF750900750A00750D00750E0002
:1001000075820022C0E0C0D075D0000509E5092441
:100110009C5003750900C3E509950B9292050AE509
:100120000A249C5003750A00C3E50A950C929405B5
:100130000DE50D249C5003750D00C3E50D950F9240
:1001400090050EE50E249C5003750E00C3E50E9538
:10015000109291D0D0D0E032750F4B7510002275FF
:100160000F0075105A22750B52750C0022750B008A
:10017000750C5F22750F0075100022750B00750C51
:1001800000227A0179F878B8D8FED9FADAF6222274
:100190007A147B00C002C003120182D003D0021A7D
:1001A000BAFF011BEA4B70EC227582010204147540
:1001B000820002041412017402017B1201A9AA82B6
:1001C000AB83C002C0031201AFAC82AD83D003D0B9
:1001D00002C3EA9CEB9DE433FE700AC3EC9AED9BEC
:1001E000E433FF600122EE6055C002C003C004C0CA
:1001F00005C007120322D007D005D004D003D002D7
:10020000C3EA9CEB9D5020C0071201A9AA82AB83D0
:10021000D007C002C003C0071201AFAC82AD83D0CB
:1002200007D003D00280D9C002C003C004C005C0FB
:10023000071201B5D007D005D004D003D002EF607B
:1002400035C002C003C004C00512031FD005D0048E
:10025000D003D002C3EC9AED9B50181201A9AA82D8
:10026000AB83C002C0031201AFAC82AD83D003D018
:100270000280E10201B5227A1479F878B8D8FED963
:10028000FADAF622227A0179F878B8D8FED9FADAC1
:10029000F622227A0C79F878B8D8FED9FADAF62262
:1002A000227A1579F878B8D8FED9FADAF622227AC5
:1002B0000D79F878B8D8FED9FADAF622227A0179DF
:1002C000F878B8D8FED9FADAF6222212015F0201D4
:1002D0006D1202CB1202771201B512028512031FB2
:1002E0001202931202CB1202A11201B512032212C2
:1002F00002AF1201B50202BD12031F1202931203D4
:10030000251202A11201B512032212029312032533
:100310001202771201B51202AF1201B50202BD023C
:100320000158020166120158020166C3E49519E4FE
:100330006480851AF063F08095F05009151974FFF8
:10034000B51902151A22C3E5199403E51A648094BD
:100350008050080519E4B51902051A221203221269
:1003600001900201B512031F1201900201B5AA8289
:10037000AB837C00C002C003C0041203F6D004D0DB
:1003800003D0027D00BD08005054758200C002C039
:1003900003C004C005120414AE82AF83D005D0049C
:1003A000D003D002C3EA9EEB64808FF063F08095A7
:1003B000F050108DF005F07401800225E0D5F0FBBF
:1003C000FE80027E00EE4204C002C003C004C005ED
:1003D0001203E8D005D004D003D0020D80A7C004DA
:1003E0001203F6D0048C82227A0279F878B8D8FE0B
:1003F000D9FADAF622227A0379F878B8D8FED9FA4F
:10040000DAF62222AA8253C47F8AC5748055C4FAC0
:10041000BA80F822AA8253C3BF75C33F43C340C208
:10042000C174184AF5821204047A0A7B001ABAFFD2
:10043000011BEA4B70F7758255120404743F55C5D1
:10044000FB7A00758255C002C003120404D003D0A9
:1004500002D2C174F055C5FC7D00EC2AFAED3BC414
:10046000CAC4540F6ACA540FCA6ACA8A82F5832260
:10047000120414120683AA82AB83ACF0FDC002C042
:1004800003C004C00590A3D775F0A0744012068F76
:10049000AA82AB83ACF0FDE58124FCF581E4C0E0E9
:1004A00074C0C0E0747FC0E07444C0E08A828B8373
:1004B0008CF0ED120768AA82AB83ACF0FDE58124D5
:1004C000FCF5818A828B838CF0ED22120166120189
:1004D000901201B512019012016D1201901201B536
:1004E0001201901201581201901201B512019012DE
:1004F000015F1201901201B512019080CEAA82AB69
:1005000083C002C0031201A985821B85831CD0030E
:10051000D002EBCA25E0CA33FBEA2411F8860608AC
:100520008607E51BC39EFCE51C9FFDC374509CE43D
:100530009D5011EEC3951BFCEF951CFDC374509CA0
:10054000E49D400122C002C003C006C007C01BC01A
:100550001C747FC0E07400C0E07480C0E0120747E4
:10056000E58124F9F581D003D002EA2411F886044C
:1005700008860518C3E51B9CE51C9D50698801870A
:100580000609870719E51BC39EFEE51C9FFFC3EE06
:100590009450EF9400404CC002C003C001120325E8
:1005A0001201A985821B85831CD001D003D002EAE9
:1005B0002411F88606088607C002C003C001C006E1
:1005C000C007C01BC01C747FC0E07400C0E0748012
:1005D000C0E0120747E58124F9F581D001D003D0AE
:1005E00002809C0201B5C3EC951BED951C506786FB
:1005F0000408860518ECC3951BFCED951CFDC3741F
:10060000509CE49D504DC002C003C0001202CB12AA
:1006100001A985821B85831CD000D003D002EA2467
:1006200011F9870409870519C002C003C000C0047E
:10063000C005C01BC01C747FC0E07400C0E07480A3
:10064000C0E0120747E58124F9F581D000D003D03E
:1006500002809C0201B5227513967514007519016C
:10066000E4F51A74A0C0E07400C0E07480C0E01229
:100670000747158115811581851982851A83120412
:10068000FD80F5E4AC83AB82FAF9748E0208901217
:10069000091CBC00030208BBEF60FA30D502B2D1DE
:1006A000E583B4FF030208D1E582B4FF030208D159
:1006B000258340072482400B0208BB248314500387
:1006C0000208D1F582EA8DF0A4A8F0EA8EF0A42801
:1006D000F8E435F0F9EB8DF0A428E935F0F9E433CE
:1006E000CA8FF0A429F9EA35F0FAEBF88EF0A429C4
:1006F000F9EA35F0FAE433FBEC8DF0A429F9EA3598
:10070000F0FAE43BFBE88FF0A42AFAEB35F0FBE4C7
:1007100033CCFD8EF0A42AFAEB35F0FBE43CFCED83
:100720008FF0A42BFBEC35F0FC20E7031208E90264
:10073000089A020F6A85823085833185F032851DE3
:10074000339007320209D3C008858108E50824FBED
:10075000F533E50824FBF8863008863108863290A8
:1007600007321209D3D0082212091C30D502B2D1A7
:10077000BF0009BC00030208DE0208D1BC0003026E
:1007800008BBE583B4FF0BE582B4FF030208DE0279
:1007900008BBE582B4FF030208D1C3958350072448
:1007A0007F400B0208BB24801450030208D1C0E034
:1007B000E4CCCBCAF98D378E388F39EF54F0C4F5BD
:1007C0003A758306853AF0EB84F582E9C4F9EAC408
:1007D000FAEBC4FBEC540FC47803D6FC18EBD6FB41
:1007E00018EAD6FA8582F0EDA4A8F0FD8582F0EE35
:1007F000A428FEE435F0F88582F0EFA428FFE43564
:10080000F0F8E99DF9EA9EFAEB9FFBEC98FCAD3716
:10081000AE38AF3930E7101582E92DF9EA3EFAEB30
:100820003FFBE43CFC80EDC082D58398C3E933F9FB
:10083000EA33FAEB33FBEC33FCC3E99DEA9EEB9F12
:10084000EC9400B3E413F9D002D0E0C44AFAD00328
:10085000D0E0C44BFBD004D0E0F5F0540FC44CFC06
:10086000D082158230F40FD3EC13FCEB13FBEA13A8
:10087000FAE913F90582E930E70A74012AFAE43B40
:10088000FBE43CFC0208B2FCABF0AA83A982749E94
:10089000C2D1F5821208E902089AB98003EA13B3BB
:1008A0004010EA2401FAE43BFBE43CFC50047C8069
:1008B0000582BC000EBB000BBA0008E4F5F0F5831E
:1008C000F58222A2D1E582138CF092F78B838A8283
:1008D00022E4F583F58275F080F4A2D11322E4F5C9
:1008E00083F58275F0C0747F227804EC7011E58284
:1008F00024F8500AF582E4C9CACBFCD8EF22EC7880
:1009000020058220E713D5820122C3E933F9EA33B7
:10091000FAEB33FBEC33FCD8EA158222AA82AB83D4
:10092000A2F73392D16002D2F7F582ACF0E58124D0
:10093000F9F8E6FD08E6FE0886F008E6A2F733922D
:10094000D56002D2F7F583AFF022AA82745BC0E0D3
:100950007409C0E0C022C0238A82220529E4B52997
:1009600002052A22AA8274302AFA24C6500A740781
:100970002AFA3000034302208A8202094AE582FAF9
:10098000C4540FF582C002120964D002740F5AF5E4
:1009900082020964AA24AB25AC26AD27AE28752FA8
:1009A00020EE2EFEED235401FF4206EA2AFAEB3335
:1009B000FBEC33FCED33FDC3EE952B4008EEC39505
:1009C0002BFE430201D52FD98A248B258C268D2717
:1009D0008E2822858222858323E4F529F52AAA30F0
:1009E000AB31AC328A828B838CF0120F7FFD7401A5
:1009F0002AF530E43BF5318C32EDFA7003020F63D7
:100A0000BA25028003020F5BC204C205C206C207F8
:100A1000C208C209C20AC20BC201C202C203752BBC
:100A200000752C00752DFFAB30AC31AD328B828C54
:100A3000838DF0120F7FFAA3AB82AC838B308C31A5
:100A40008D32BA25078A8212094A80928A06BE3000
:100A500000402E8A06EE24C6402774FFB52D13E50C
:100A60002C75F00AA4FEEA24D02EF52C70BFD20516
:100A700080BBE52D75F00AA4FEEA24D02EF52D806A
:100A8000ACBA2E0A74FFB52DA4752D00809F8A067E
:100A9000BE6100400E8A06EE248540075302DFD275
:100AA000008002C200BA20028075BA2303020B2E16
:100AB000BA2A03020B33BA2B02805FBA2D0280558B
:100AC000BA4202805FBA4303020B78BA4403020CB5
:100AD000B3BA4503020CCDBA4603020CC9BA4703A8
:100AE000020CD1BA4903020CB3BA4C02803BBA4E95
:100AF00003020CD5BA4F03020CBABA5003020C4CD5
:100B0000BA5303020B9CBA5503020CBFBA58030236
:100B10000CC4020CFFD204020A2DD206020A2DD206
:100B200007020A2DD209020A2DD20A020A2DD20B7F
:100B3000020A2D74FFB52D2030090BE53314F88817
:100B400033862C020A2DE53324FEF8883386060806
:100B50008607188E2C020A2D30090BE53314F8880D
:100B600033862D020A2DE53324FEF88833860608E5
:100B70008607188E2D020A2D30090AE53314F888ED
:100B8000338602800FE53324FEF888338603088617
:100B900004188B028A8212094A020D04E53324FDEF
:100BA000F88833860308860408860518188B248C79
:100BB000258D268B828C838DF0120FB4AB82AC8393
:100BC0008B2E74FFB52D03852E2D20041DC3E52E1D
:100BD000952C5016E52CC3952EF52CAB2C152CEB33
:100BE000600875822012094A80F185248285258358
:100BF0008526F0120F7FFBFA6029AB2D152DC3E47B
:100C000064808BF063F08095F050188A8212094A54
:100C1000AB24AC25AD260BBB00010C8B248C258DA1
:100C20002680C7200403020D04C3E52E952C400343
:100C3000020D04E52CC3952EF52CAB2C152CEB7076
:100C400003020D0475822012094A80EEE53324FD6B
:100C5000F88833860308860408860518188B248CC8
:100C6000258D26E526FB30E7047A438013EB54609C
:100C700060047A50800AEB30E6047A4980027A58A0
:100C80008A82C00212094A75823A12094A75823074
:100C900012094A75827812094AD002BA4902800BB9
:100CA000BA5002800685258212097D8524821209A8
:100CB0007D8051D208752B0A804A752B08804575B6
:100CC0002B0A8040752B10803BD2018037D20280E6
:100CD00033D203802FE53324FDF88833860308865A
:100CE0000408860518188B248C258D268B828C830E
:100CF0008DF0E529120F9BA3E52A120F9B80058A30
:100D00008212094A20010620020330035AE53324E7
:100D1000FCF88833860308860408860508860618CA
:100D200018188B248C258D268E277524A2752500F6
:100D3000752680852434852535852636740125342D
:100D4000FEE43535FFAB368E248F258B2685348225
:100D50008535838536F0120F7FFBFA70030209DEBA
:100D60008A8212094A80CCE52B70030209DE7B409F
:100D700030092BE53314F88833E6FC3395E0FDFEAB
:100D8000FF8C248D258E268F2720085EAC247D00C5
:100D90007E007F008C248D258E268F27804C300A84
:100DA0001FE53324FCF88833860408860508860688
:100DB0000886071818188C248D258E268F27802AE0
:100DC000E53324FEF88833860408860518ED33954C
:100DD000E0FEFF8C248D258E268F2720080CAC2466
:100DE000AD257E007F008E268F27300B43E52445FE
:100DF000254526452760397408B52B0C758230C00F
:100E00000312094AD00380287410B52B2375823051
:100E1000C00312094AD00330000C758278C0031257
:100E2000094AD003800A758258C00312094AD003C8
:100E3000300825AC24AD25AE26E527FF30E717C3E3
:100E4000E49CFCE49DFDE49EFEE49FFF8C248D2544
:100E50008E268F278002C208752E00D20C8B00755B
:100E60002800C000120994D000200C0DE528C4FC15
:100E7000E6FD4CF61888038002A628052EB20CE584
:100E80002445254526452770D68803E52C70037533
:100E90002C0120051A200417E52E04FCC3952C50C4
:100EA0000E758220C00312094AD003152C80E93048
:100EB000080E75822DC00312094AD003152C802418
:100EC000E52E602030060E75822BC00312094AD031
:100ED00003152C800F30070C758220C00312094ABD
:100EE000D003152C20041EAC2C152CC3E52E9C50D1
:100EF000273005047C3080027C208C82C0031209DC
:100F00004AD00380E2C3E52E952C5009E52CC39509
:100F10002EF52C8003752C008B00AB2E152EEB606C
:100F200022B20C200C0A08E6C4540FFB8B28800761
:100F30008603740F5BF528852882C000120964D0EF
:100F40000080D72004030209DEAB2C152CEB7003C4
:100F50000209DE75822012094A80EE8A8212094A4D
:100F60000209DE852982852A8322AA82BA0A08100C
:100F7000990280FB75990D10990280FB8A992220B5
:100F8000F71430F6148883A88220F507E6A8837545
:100F9000830022E280F7E49322E02220F71030F66B
:100FA000118883A88220F507F6A88375830022F2B2
:100FB00080F7F022AA82AB83ACF07D007E008A82AB
:100FC0008B838CF0120F7FFFA3AA82AB83EF6007A5
:100FD0000DBD00EA0E80E78D828E832200000000A6
:00000001FF
