:1000000002000E00000000000000000201EA7581FD
:100010003C120193E582600302007A780079007A4D
:10002000007B007C007D00EC4D601C88828983E4AD
:1000300093A3A882A9838A828B83F0A3AA82AB832D
:100040001CBCFFE31D80E07582007583007C007D91
:1000500000EC4D600AE4F0A31CBCFFF51D80F275B6
:1000600082007583007C007D00EC4D600AE4F0A303
:100070001CBCFFF51D80F212017A1208F380FE20ED
:100080000A204265666F7265205475726E696E67EC
:1000900021212121212121212120526967687420F9
:1000A000566F6C746167652052656164696E673A6A
:1000B0002025752C204C65667420566F6C74616722
:1000C000652052656164696E673A20257500200AD3
:1000D000204669727374204C6F6F70205269676894
:1000E0007420566F6C746167652052656164696E37
:1000F000673A2025752C204C65667420566F6C7409
:100100006167652052656164696E673A20257500F4
:100110000D00200A205365636F6E64204C6F6F7072
:1001200020526967687420566F6C7461676520524D
:10013000656164696E673A2025752C204C6566748C
:1001400020566F6C746167652052656164696E67E3
:100150003A202575006D616465207468726F75675B
:100160006820626F7468206C6F6F7073000A003CC7
:100170004E4F20464C4F41543E007511967512006B
:1001800075134B75140075151E75160075171475CB
:1001900018002275E60075E70075D60075D7007562
:1001A000CE0075CF0075C60075C700758E1175BE7F
:1001B0000075BF00438780759852759B00759AFA49
:1001C000759B1EC28C75890175F4FF758CFF75F2E5
:1001D00048758A48D28CD2A9D2AF750900750A0039
:1001E000750D00750E0075820022C0E0C0D075D07C
:1001F000000509E509249C5003750900C3E509952C
:100200000B9292050AE50A249C5003750A00C3E587
:100210000A950C9294050DE50D249C5003750D0074
:10022000C3E50D950F9290050EE50E249C500375C5
:100230000E00C3E50E95109291D0D0D0E032750F2C
:100240003375100022750F0075103322750B2F7552
:100250000C0022750B00750C2F22750F0075100015
:1002600022750B00750C00227A0179F878B8D8FE57
:10027000D9FADAF622227A147B00C002C0031202F5
:1002800068D003D0021ABAFF011BEA4B70EC22754A
:10029000820202063775820302063712025A0202F0
:1002A0006112028FAA82AB83C002C003120295AC16
:1002B00082AD83D003D002C002C003C004C005C019
:1002C00004C005C002C003747FC0E07400C0E074C5
:1002D00080C0E0120979E58124F9F581D005D004C8
:1002E000D003D002EAC39CFEEB9DFFC374329EE4B0
:1002F0009F5069C3EC9AED9B505D12050F12028F5F
:10030000AA82AB83C002C003120295AC82AD83D037
:1003100003D002C002C003C004C005C004C005C0B1
:1003200002C00374CEC0E07400C0E07480C0E0126C
:100330000979E58124F9F5817410C0E07401C0E009
:100340007480C0E0120979158115811581D005D01E
:1003500004D003D002809C12029B8076ECC39AFEEC
:10036000ED9BFFC3741E9EE49F5067C3EA9CEB9D08
:10037000505D12050C12028FAA82AB83C002C0032B
:10038000120295AC82AD83D003D002C002C003C07C
:1003900004C005C004C005C002C0037412C0E074EC
:1003A00001C0E07480C0E0120979E58124F9F5818B
:1003B0007410C0E07401C0E07480C0E012097915C7
:1003C0008115811581D005D004D003D002809C1204
:1003D000029B7455C0E07401C0E07480C0E0120953
:1003E0007915811581158122AA82AB837C007D005D
:1003F000C3EC9AED64808BF063F08095F0501AC0E6
:1004000002C003C004C00512041AD005D004D003F2
:10041000D0020CBC00DA0D80D7227A027905785C14
:10042000D8FED9FADAF622227A1479F878B8D8FE0A
:10043000D9FADAF622227A0179F878B8D8FED9FA10
:10044000DAF622227A0C79F878B8D8FED9FADAF6F8
:1004500022227A1579F878B8D8FED9FADAF622226B
:100460007A0D79F878B8D8FED9FADAF622227A012C
:1004700079F878B8D8FED9FADAF6222212024502C3
:1004800002531205129005141203E812029B120285
:100490004C9003E81203E812023E9001F41203E8C4
:1004A00012029B12023E9003D91203E812029B1221
:1004B000027612027612027612027612024590033A
:1004C000D91203E81202539002581203E812029B59
:1004D0001202539003E81203E81202459005141229
:1004E00003E802029B12050C1204441205121204C6
:1004F0005212029B12050F12044412051212042814
:1005000012029B12046012029B02046E02023E025F
:10051000024C12023E02024CC3E49519E464808549
:100520001AF063F08095F05009151974FFB519029F
:10053000151A22C3E5199403E51A648094805008C3
:100540000519E4B51902051A2212029B1202531270
:10055000023E9004FD1203E812029BE51B70047535
:100560001B0122751B002212029B12024512024C33
:100570009004FD1203E812029BE51B7004751B0139
:1005800022751B0022AA82AB83C2AFC290C291C265
:1005900092C2947C00C002C003C004120619D004A9
:1005A000D003D0027D00BD08005054758202C00205
:1005B000C003C004C005120637AE82AF83D005D099
:1005C00004D003D002C3EA9EEB64808FF063F08016
:1005D00095F050108DF005F07401800225E0D5F003
:1005E000FBFE80027E00EE4204C002C003C004C0D5
:1005F0000512060BD005D004D003D0020D80A7C091
:1006000004120619D004D2AF8C82227A027996782D
:1006100096D8FED9FADAF622227A0379967896D815
:10062000FED9FADAF62222AA8253C47F8AC57480E0
:1006300055C4FABA80F822AA8253C3BF75C33F4398
:10064000C340C2C174184AF5821206277A0A7B0099
:100650001ABAFF011BEA4B70F77582551206277410
:100660003F55C5FB7A00758255C002C003120627AC
:10067000D003D002D2C174F055C5FC7D00EC2AFA3B
:10068000ED3BC4CAC4540F6ACA540FCA6ACA8A82EC
:10069000F583221202761202761204821202761278
:1006A000027680F512028FAA82AB83C002C00312C9
:1006B0000295AC82AD83D003D002E51B6003020734
:1006C000CEE5192519FEE51A33EE2411F886060841
:1006D0008607EAC39EF582EB9FF583C002C003C084
:1006E00004C005120955AE82AF83D005D004D003F3
:1006F000D002C3EE9414EF648094804050E5192535
:1007000019FEE51A33EE2411F88606088607C3EEB3
:100710009AEF9B5013C002C003C004C005120245EB
:10072000D005D004D003D002E5192519FEE51A330F
:10073000EE2411F88606088607C3EA9EEB9F501840
:10074000C004C00512023ED005D004800BC004C016
:100750000512029BD005D004E5192519FEE51A33D0
:10076000EE2411F88606088607ECC39EF582ED9FFD
:10077000F583C004C005120955AE82AF83D005D001
:1007800004C3EE9414EF64809480403FE51925196A
:10079000FEE51A33EE2411F88606088607C3EE9CA0
:1007A000EF9D500BC004C005120253D005D004E5E4
:1007B000192519FEE51A33EE2411F8860608860776
:1007C000C3EC9EED9F40012202024C02029BE51900
:1007D0002519FEE51A33EE2411F88606088607EA85
:1007E000C39EF582EB9FF583C002C003C004C00521
:1007F000120955AE82AF83D005D004D003D002C316
:10080000EE9414EF648094804050E5192519FEE5BC
:100810001A33EE2411F88606088607C3EA9EEB9F7A
:100820005013C002C003C004C005120245D005D059
:1008300004D003D002E5192519FEE51A33EE241180
:10084000F88606088607C3EE9AEF9B5018C004C0CE
:100850000512023ED005D004800BC004C005120270
:100860009BD005D004E5192519FAE51A33EA2411BD
:10087000F88602088603ECC39AF582ED9BF583C0E7
:1008800004C005120955AA82AB83D005D004C3EA7F
:100890009414EB64809480403EE5192519FAE51A1A
:1008A00033EA2411F88602088603C3EC9AED9B50C4
:1008B0000BC004C005120253D005D004E519251958
:1008C000FAE51A33EA2411F88602088603C3EA9C83
:1008D000EB9D500602024C02029B221205491202B5
:1008E00076120276120276120567120276120276EC
:1008F000020276751901E4F51A751B00746DC0E0EB
:100900007401C0E07480C0E0120979158115811569
:10091000811206A412028FAA82AB83C3EA940AEB67
:10092000940050ED12029B90000A120585AA82BA2B
:10093000FD07C002120533D002BAF507C002120546
:1009400018D002BAD507C002120549D002BA84C134
:1009500012048280BCE58330E709F4F583E582F474
:10096000F582A322020FBA85823085833185F03269
:10097000851C33900964020A23C008858108E508B4
:1009800024FBF533E50824FBF88630088631088619
:1009900032900964120A23D00822AA8274ABC0E004
:1009A0007409C0E0C022C0238A82220529E4B52947
:1009B00002052A22AA8274302AFA24C6500A740731
:1009C0002AFA3000034302208A8202099AE582FA59
:1009D000C4540FF582C0021209B4D002740F5AF544
:1009E000820209B4AA24AB25AC26AD27AE28752F08
:1009F00020EE2EFEED235401FF4206EA2AFAEB33E5
:100A0000FBEC33FCED33FDC3EE952B4008EEC395B4
:100A10002BFE430201D52FD98A248B258C268D27C6
:100A20008E2822858222858323E4F529F52AAA309F
:100A3000AB31AC328A828B838CF0120FCFFD740104
:100A40002AF530E43BF5318C32EDFA7003020FB336
:100A5000BA25028003020FABC204C205C206C20758
:100A6000C208C209C20AC20BC201C202C203752B6C
:100A700000752C00752DFFAB30AC31AD328B828C04
:100A8000838DF0120FCFFAA3AB82AC838B308C3105
:100A90008D32BA25078A8212099A80928A06BE3060
:100AA00000402E8A06EE24C6402774FFB52D13E5BC
:100AB0002C75F00AA4FEEA24D02EF52C70BFD205C6
:100AC00080BBE52D75F00AA4FEEA24D02EF52D801A
:100AD000ACBA2E0A74FFB52DA4752D00809F8A062E
:100AE000BE6100400E8A06EE248540075302DFD225
:100AF000008002C200BA20028075BA2303020B7E76
:100B0000BA2A03020B83BA2B02805FBA2D028055EA
:100B1000BA4202805FBA4303020BC8BA4403020D13
:100B200003BA4503020D1DBA4603020D19BA470365
:100B3000020D21BA4903020D03BA4C02803BBA4EA2
:100B400003020D25BA4F03020D0ABA5003020C9C92
:100B5000BA5303020BECBA5503020D0FBA58030245
:100B60000D14020D4FD204020A7DD206020A7DD274
:100B700007020A7DD209020A7DD20A020A7DD20B3F
:100B8000020A7D74FFB52D2030090BE53314F88877
:100B900033862C020A7DE53324FEF8883386060866
:100BA0008607188E2C020A7D30090BE53314F8886D
:100BB00033862D020A7DE53324FEF8883386060845
:100BC0008607188E2D020A7D30090AE53314F8884D
:100BD000338602800FE53324FEF8883386030886C7
:100BE00004188B028A8212099A020D54E53324FDFF
:100BF000F88833860308860408860518188B248C29
:100C0000258D268B828C838DF0121004AB82AC83F1
:100C10008B2E74FFB52D03852E2D20041DC3E52ECC
:100C2000952C5016E52CC3952EF52CAB2C152CEBE2
:100C3000600875822012099A80F1852482852583B7
:100C40008526F0120FCFFBFA6029AB2D152DC3E4DA
:100C500064808BF063F08095F050188A8212099AB4
:100C6000AB24AC25AD260BBB00010C8B248C258D51
:100C70002680C7200403020D54C3E52E952C4003A3
:100C8000020D54E52CC3952EF52CAB2C152CEB70D6
:100C900003020D5475822012099A80EEE53324FD7B
:100CA000F88833860308860408860518188B248C78
:100CB000258D26E526FB30E7047A438013EB54604C
:100CC00060047A50800AEB30E6047A4980027A5850
:100CD0008A82C00212099A75823A12099A75823084
:100CE00012099A75827812099AD002BA4902800BC9
:100CF000BA500280068525821209CD852482120908
:100D0000CD8051D208752B0A804A752B0880457515
:100D10002B0A8040752B10803BD2018037D2028095
:100D200033D203802FE53324FDF888338603088609
:100D30000408860518188B248C258D268B828C83BD
:100D40008DF0E529120FEBA3E52A120FEB80058A3F
:100D50008212099A20010620020330035AE5332447
:100D6000FCF888338603088604088605088606187A
:100D700018188B248C258D268E2775246F752501D8
:100D800075268085243485253585263674012534DD
:100D9000FEE43535FFAB368E248F258B26853482D5
:100DA0008535838536F0120FCFFBFA7003020A2EC9
:100DB0008A8212099A80CCE52B7003020A2E7B3CB2
:100DC00030092BE53314F88833E6FC3395E0FDFE5B
:100DD000FF8C248D258E268F2720085EAC247D0075
:100DE0007E007F008C248D258E268F27804C300A34
:100DF0001FE53324FCF88833860408860508860638
:100E00000886071818188C248D258E268F27802A8F
:100E1000E53324FEF88833860408860518ED3395FB
:100E2000E0FEFF8C248D258E268F2720080CAC2415
:100E3000AD257E007F008E268F27300B43E52445AD
:100E4000254526452760397408B52B0C758230C0BE
:100E50000312099AD00380287410B52B23758230B1
:100E6000C00312099AD00330000C758278C00312B7
:100E7000099AD003800A758258C00312099AD003D8
:100E8000300825AC24AD25AE26E527FF30E717C393
:100E9000E49CFCE49DFDE49EFEE49FFF8C248D25F4
:100EA0008E268F278002C208752E00D20C8B00750B
:100EB0002800C0001209E4D000200C0DE528C4FC75
:100EC000E6FD4CF61888038002A628052EB20CE534
:100ED0002445254526452770D68803E52C700375E3
:100EE0002C0120051A200417E52E04FCC3952C5074
:100EF0000E758220C00312099AD003152C80E930A8
:100F0000080E75822DC00312099AD003152C802477
:100F1000E52E602030060E75822BC00312099AD090
:100F200003152C800F30070C758220C00312099A1C
:100F3000D003152C20041EAC2C152CC3E52E9C5080
:100F4000273005047C3080027C208C82C00312098B
:100F50009AD00380E2C3E52E952C5009E52CC39569
:100F60002EF52C8003752C008B00AB2E152EEB601C
:100F700022B20C200C0A08E6C4540FFB8B28800711
:100F80008603740F5BF528852882C0001209B4D04F
:100F90000080D7200403020A2EAB2C152CEB700323
:100FA000020A2E75822012099A80EE8A8212099A0C
:100FB000020A2E852982852A8322AA82BA0A08106B
:100FC000990280FB75990D10990280FB8A99222065
:100FD000F71430F6148883A88220F507E6A88375F5
:100FE000830022E280F7E49322E02220F71030F61B
:100FF000118883A88220F507F6A88375830022F262
:1010000080F7F022AA82AB83ACF07D007E008A825A
:101010008B838CF0120FCFFFA3AA82AB83EF600704
:101020000DBD00EA0E80E78D828E83220000000055
:00000001FF
