:1000000002000E22000000000000000200D67581F0
:100010001D12007FE582600302007A780079007A81
:10002000007B007C007D00EC4D601C88828983E4AD
:1000300093A3A882A9838A828B83F0A3AA82AB832D
:100040001CBCFFE31D80E07582007583007C007D91
:1000500000EC4D600AE4F0A31CBCFFF51D80F275B6
:1000600082007583007C007D00EC4D600AE4F0A303
:100070001CBCFFF51D80F212000312052880FE75DE
:10008000E60075E70075D60075D70075CE0075CF10
:100090000075C60075C700758E1175BE0075BF006E
:1000A000438780759852759B00759AFA759B1EC29E
:1000B0008C75890175F4FF758CFF75F248758A4857
:1000C000D28CD2A9D2AF750800750900750C0075E5
:1000D0000D0075820022C0E0C0D075D0000508E593
:1000E00008249C5003750800C3E508950A92920500
:1000F00009E509249C5003750900C3E509950B9295
:1001000094050CE50C249C5003750C00C3E50C957C
:100110000E9290050DE50D249C5003750D00C3E56E
:100120000D950F9291D0D0D0E032750E4B750F0027
:1001300022750E00750F5A22750A52750B00227532
:100140000A00750B5F22750E00750F0022750A00FC
:10015000750B00227A0179F878B8D8FED9FADAF668
:1001600022227A147B00C002C003120154D003D0B3
:10017000021ABAFF011BEA4B70EC227582010203DE
:10018000E67582000203E612014602014D12017B70
:10019000AA82AB83C002C003120181AC82AD83D0BE
:1001A00003D002C3EA9CEB9DE433FE700AC3EC9AD1
:1001B000ED9BE433FF600122EE6055C002C003C036
:1001C00004C005C0071202F4D007D005D004D00344
:1001D000D002C3EA9CEB9D5020C00712017BAA828B
:1001E000AB83D007C002C003C007120181AC82AD4F
:1001F00083D007D003D00280D9C002C003C004C09E
:1002000005C007120187D007D005D004D003D00263
:10021000EF6035C002C003C004C0051202F1D00572
:10022000D004D003D002C3EC9AED9B501812017B8E
:10023000AA82AB83C002C003120181AC82AD83D01D
:1002400003D00280E1020187227A1479F878B8D8C5
:10025000FED9FADAF622227A0179F878B8D8FED9EE
:10026000FADAF622227A0C79F878B8D8FED9FADAD6
:10027000F622227A1579F878B8D8FED9FADAF62279
:10028000227A0D79F878B8D8FED9FADAF622227AED
:100290000179F878B8D8FED9FADAF62222120131BB
:1002A00002013F12029D12024912018712025712E7
:1002B00002F112026512029D1202731201871202EC
:1002C000F412028112018702028F1202F1120265FA
:1002D0001202F71202731201871202F4120265125F
:1002E00002F71202491201871202811201870202EB
:1002F0008F02012A02013812012A020138C3E49553
:1003000018E464808519F063F08095F050091518A1
:1003100074FFB51802151922C3E5189403E5196492
:1003200080948050080518E4B518020519221202BD
:10033000F41201620201871202F1120162020187C6
:10034000AA82AB837C00C002C003C0041203C8D0E1
:1003500004D003D0027D00BD08005054758200C057
:1003600002C003C004C0051203E6AE82AF83D0050D
:10037000D004D003D002C3EA9EEB64808FF063F018
:100380008095F050108DF005F07401800225E0D5C5
:10039000F0FBFE80027E00EE4204C002C003C004F7
:1003A000C0051203BAD005D004D003D0020D80A737
:1003B000C0041203C8D0048C82227A0279F878B87B
:1003C000D8FED9FADAF622227A0379F878B8D8FE7C
:1003D000D9FADAF62222AA8253C47F8AC5748055DC
:1003E000C4FABA80F822AA8253C3BF75C33F43C37D
:1003F00040C2C174184AF5821203D67A0A7B001AE9
:10040000BAFF011BEA4B70F77582551203D6743F91
:1004100055C5FB7A00758255C002C0031203D6D0C1
:1004200003D002D2C174F055C5FC7D00EC2AFAED70
:100430003BC4CAC4540F6ACA540FCA6ACA8A82F536
:1004400083221203E6120579AA82AB83ACF0FDC0C9
:1004500002C003C004C00590A3D775F0A074401279
:100460000585AA82AB83ACF0FDE58124FCF581E42F
:10047000C0E074C0C0E0747FC0E07444C0E08A8211
:100480008B838CF0ED120628AA82AB83ACF0FDE5DD
:100490008124FCF5818A828B838CF0ED221202A3E9
:1004A0001201621202CA12016280F2AA82AB83C0F8
:1004B00002C00312018D12017BAC82AD83D003D048
:1004C00002EBCA25E0CA33FBEA2410F88606088648
:1004D0000718C3EC9EED9F5018C002C003C0001265
:1004E00002F712017BAC82AD83D000D003D0028032
:1004F000DBC002C003C004C005120187D005D004D0
:10050000D003D002EA2410F8860208860318C3EA52
:100510009CEB9D5010C00012029D12017BAC82AD7D
:1005200083D00080E3020187751296751300751859
:1005300001E4F5198518828519831204AB12017B39
:10054000AA82AB83C3E49AE49B40E99000001203C3
:1005500040AA82BAF507C00212029DD002BAFD0776
:10056000C0021202F7D002BAD507C00212032ED081
:1005700002BA55C01202A380BBE4AC83AB82FAF985
:10058000748E0207501207DCBC000302077BEF6089
:10059000FA30D502B2D1E583B4FF03020791E582B8
:1005A000B4FF03020791258340072482400B020712
:1005B0007B2483145003020791F582EA8DF0A4A8EE
:1005C000F0EA8EF0A428F8E435F0F9EB8DF0A428D9
:1005D000E935F0F9E433CA8FF0A429F9EA35F0FAE5
:1005E000EBF88EF0A429F9EA35F0FAE433FBEC8D50
:1005F000F0A429F9EA35F0FAE43BFBE88FF0A42AED
:10060000FAEB35F0FBE433CCFD8EF0A42AFAEB359F
:10061000F0FBE43CFCED8FF0A42BFBEC35F0FC2070
:10062000E7031207A902075A1207DC30D502B2D13C
:10063000BF0009BC000302079E020791BC00030231
:10064000077BE583B4FF0BE582B4FF0302079E023C
:10065000077BE582B4FF03020791C395835007240B
:100660007F400B02077B2480145003020791C0E0F7
:10067000E4CCCBCAF98D1A8E1B8F1CEF54F0C4F555
:100680001D758306851DF0EB84F582E9C4F9EAC483
:10069000FAEBC4FBEC540FC47803D6FC18EBD6FB82
:1006A00018EAD6FA8582F0EDA4A8F0FD8582F0EE76
:1006B000A428FEE435F0F88582F0EFA428FFE435A5
:1006C000F0F8E99DF9EA9EFAEB9FFBEC98FCAD1A75
:1006D000AE1BAF1C30E7101582E92DF9EA3EFAEBAC
:1006E0003FFBE43CFC80EDC082D58398C3E933F93D
:1006F000EA33FAEB33FBEC33FCC3E99DEA9EEB9F54
:10070000EC9400B3E413F9D002D0E0C44AFAD00369
:10071000D0E0C44BFBD004D0E0F5F0540FC44CFC47
:10072000D082158230F40FD3EC13FCEB13FBEA13E9
:10073000FAE913F90582E930E70A74012AFAE43B81
:10074000FBE43CFC020772FCABF0AA83A982749E16
:10075000C2D1F5821207A902075AB98003EA13B37E
:100760004010EA2401FAE43BFBE43CFC50047C80AA
:100770000582BC000EBB000BBA0008E4F5F0F5835F
:10078000F58222A2D1E582138CF092F78B838A82C4
:1007900022E4F583F58275F080F4A2D11322E4F50A
:1007A00083F58275F0C0747F227804EC7011E582C5
:1007B00024F8500AF582E4C9CACBFCD8EF22EC78C1
:1007C00020058220E713D5820122C3E933F9EA33F9
:1007D000FAEB33FBEC33FCD8EA158222AA82AB8316
:1007E000A2F73392D16002D2F7F582ACF0E5812412
:1007F000F9F8E6FD08E6FE0886F008E6A2F733926F
:10080000D56002D2F7F583AFF022000000000000AF
:00000001FF
