:1000000002000E22000000000000000201047581C1
:100010003C1200ADE582600302007A780079007A34
:10002000007B007C007D00EC4D601C88828983E4AD
:1000300093A3A882A9838A828B83F0A3AA82AB832D
:100040001CBCFFE31D80E07582007583007C007D91
:1000500000EC4D600AE4F0A31CBCFFF51D80F275B6
:1000600082007583007C007D00EC4D600AE4F0A303
:100070001CBCFFF51D80F212000312064E80FE52DA
:10008000696768742044697374616E63653A2025FA
:10009000752053657420446973743A2025750D00EA
:1000A0000A003C4E4F20464C4F41543E0075E6003E
:1000B00075E70075D60075D70075CE0075CF007551
:1000C000C60075C700758E1175BE0075BF004387E9
:1000D00080759852759B00759AFA759B1EC28C7537
:1000E000890175F4FF758CFF75F248758A48D28CCA
:1000F000D2A9D2AF750900750A00750D00750E0002
:1001000075820022C0E0C0D075D0000509E5092441
:100110009C5003750900C3E509950B9292050AE509
:100120000A249C5003750A00C3E50A950C929405B5
:100130000DE50D249C5003750D00C3E50D950F9240
:1001400090050EE50E249C5003750E00C3E50E9538
:10015000109291D0D0D0E032750F4B7510002275FF
:100160000F0075105A22750B52750C0022750B008A
:10017000750C5F22750F0075100022750B00750C51
:1001800000227A0179F878B8D8FED9FADAF6222274
:100190007A147B00C002C003120182D003D0021A7D
:1001A000BAFF011BEA4B70EC22758201020417753D
:1001B000820002041712017402017B1201A9AA82B3
:1001C000AB83C002C0031201AFAC82AD83D003D0B9
:1001D00002ECC39AFEED9BFFC374509EE49F401057
:1001E000ECC39AFEED9BFFC3EE9450EF94005001D8
:1001F00022C3EC9AED9B5045C002C003C004C00569
:10020000120325D005D004D003D002C3EA9CEB9D95
:1002100050181201A9AA82AB83C002C0031201AF19
:10022000AC82AD83D003D00280E1C002C003C00421
:10023000C0051201B5D005D004D003D002C3EA9C9A
:10024000EB9D5035C002C003C004C005120322D08C
:1002500005D004D003D002C3EC9AED9B50181201D4
:10026000A9AA82AB83C002C0031201AFAC82AD83E6
:10027000D003D00280E10201B5227A1479F878B86F
:10028000D8FED9FADAF622227A0179F878B8D8FEBF
:10029000D9FADAF622227A0C79F878B8D8FED9FAA7
:1002A000DAF622227A1579F878B8D8FED9FADAF691
:1002B00022227A0D79F878B8D8FED9FADAF6222215
:1002C0007A0179F878B8D8FED9FADAF62222120142
:1002D0005F02016D1202CE12027A1201B51202887B
:1002E0001203221202961202CE1202A41201B512B9
:1002F00003251202B21201B50202C0120322120239
:10030000961203281202A41201B5120325120296B6
:1003100012032812027A1201B51202B21201B502BA
:1003200002C0020158020166120158020166C3E4CC
:100330009519E46480851AF063F08095F0500915F2
:100340001974FFB51902151A22C3E5199403E51AA9
:100350006480948050080519E4B51902051A221228
:1003600003251201900201B512032212019002012D
:10037000B5AA82AB837C00C002C003C0041203F99B
:10038000D004D003D0027D00BD0800505475820017
:10039000C002C003C004C005120417AE82AF83D0F0
:1003A00005D004D003D002C3EA9EEB64808FF063D3
:1003B000F08095F050108DF005F07401800225E07A
:1003C000D5F0FBFE80027E00EE4204C002C003C0F6
:1003D00004C0051203EBD005D004D003D0020D8079
:1003E000A7C0041203F9D0048C82227A0279F8782B
:1003F000B8D8FED9FADAF622227A0379F878B8D892
:10040000FED9FADAF62222AA8253C47F8AC5748002
:1004100055C4FABA80F822AA8253C3BF75C33F43BA
:10042000C340C2C174184AF5821204077A0A7B00DD
:100430001ABAFF011BEA4B70F77582551204077454
:100440003F55C5FB7A00758255C002C003120407F0
:10045000D003D002D2C174F055C5FC7D00EC2AFA5D
:10046000ED3BC4CAC4540F6ACA540FCA6ACA8A820E
:10047000F58322120417120674AA82AB83ACF0FD36
:10048000C002C003C004C00590A3D775F0A074409B
:10049000120680AA82AB83ACF0FDE58124FCF581D5
:1004A000E4C0E074C0C0E0747FC0E07444C0E08A7F
:1004B000828B838CF0ED120759AA82AB83ACF0FDDE
:1004C000E58124FCF5818A828B838CF0ED22120178
:1004D000661201901201B512019012016D12019085
:1004E0001201B51201901201581201901201B512B9
:1004F000019012015F1201901201B512019080CE9D
:100500001201BB1201A9AA82AB83E5192519FCE5EA
:100510001A33EC2411F88604088605EAC39CFEEB26
:100520009DFFC374509EE49F500FECC39AFEED9B59
:10053000FFC374509EE49F400122C002C003C00468
:10054000C005C002C003747FC0E07400C0E07480C6
:10055000C0E0120738E58124F9F581D003D002E527
:10056000192519FCE51A33EC2411F88604088605D0
:10057000C3EA9CEB9D5068E5192519FEE51A33EE98
:100580002411F8860608860718EAC39EFEEB9FFF33
:10059000C3EE9450EF940040431203281201A9AA1D
:1005A00082AB83E5192519FEE51A33EE2411F8868E
:1005B0000608860718C002C003C006C007C002C0F4
:1005C00003747FC0E07400C0E07480C0E01207389C
:1005D000E58124F9F581D003D002809B0201B5C3E7
:1005E000EC9AED9B5067E5192519FCE51A33EC24CC
:1005F00011F8860408860518ECC39AFCED9BFDC330
:1006000074509CE49D50431202CE1201A9AA82AB01
:1006100083E5192519FCE51A33EC2411F886040842
:10062000860518C002C003C004C005C002C0037420
:100630007FC0E07400C0E07480C0E0120738E5813C
:1006400024F9F581D003D002809C0201B5227513F4
:1006500096751400751901E4F51A74A0C0E07400D1
:10066000C0E07480C0E01207381581158115811231
:10067000050080FBE4AC83AB82FAF9748E0208813A
:1006800012090DBC00030208ACEF60FA30D502B2CB
:10069000D1E583B4FF030208C2E582B4FF03020878
:1006A000C2258340072482400B0208AC24831450E7
:1006B000030208C2F582EA8DF0A4A8F0EA8EF0A445
:1006C00028F8E435F0F9EB8DF0A428E935F0F9E4E9
:1006D00033CA8FF0A429F9EA35F0FAEBF88EF0A4CA
:1006E00029F9EA35F0FAE433FBEC8DF0A429F9EAB4
:1006F00035F0FAE43BFBE88FF0A42AFAEB35F0FB87
:10070000E433CCFD8EF0A42AFAEB35F0FBE43CFC9C
:10071000ED8FF0A42BFBEC35F0FC20E7031208DA98
:1007200002088B020F5B85823085833185F032852C
:100730001B339007230209C4C008858108E50824FB
:10074000FBF533E50824FBF886300886310886324D
:100750009007231209C4D0082212090D30D502B225
:10076000D1BF0009BC00030208CF0208C2BC0003CD
:100770000208ACE583B4FF0BE582B4FF030208CFA7
:100780000208ACE582B4FF030208C2C39583500798
:10079000247F400B0208AC24801450030208C2C01E
:1007A000E0E4CCCBCAF98D1C8E1D8F1EEF54F0C433
:1007B000F51F758306851FF0EB84F582E9C4F9EA1D
:1007C000C4FAEBC4FBEC540FC47803D6FC18EBD688
:1007D000FB18EAD6FA8582F0EDA4A8F0FD8582F038
:1007E000EEA428FEE435F0F88582F0EFA428FFE4BB
:1007F00035F0F8E99DF9EA9EFAEB9FFBEC98FCAD29
:100800001CAE1DAF1E30E7101582E92DF9EA3EFA45
:10081000EB3FFBE43CFC80EDC082D58398C3E93319
:10082000F9EA33FAEB33FBEC33FCC3E99DEA9EEBC8
:100830009FEC9400B3E413F9D002D0E0C44AFAD09C
:1008400003D0E0C44BFBD004D0E0F5F0540FC44C0F
:10085000FCD082158230F40FD3EC13FCEB13FBEACF
:1008600013FAE913F90582E930E70A74012AFAE478
:100870003BFBE43CFC0208A3FCABF0AA83A9827416
:100880009EC2D1F5821208DA02088BB98003EA13FE
:10089000B34010EA2401FAE43BFBE43CFC50047C46
:1008A000800582BC000EBB000BBA0008E4F5F0F531
:1008B00083F58222A2D1E582138CF092F78B838A92
:1008C0008222E4F583F58275F080F4A2D11322E44C
:1008D000F583F58275F0C0747F227804EC7011E521
:1008E0008224F8500AF582E4C9CACBFCD8EF22EC86
:1008F0007820058220E713D5820122C3E933F9EA83
:1009000033FAEB33FBEC33FCD8EA158222AA82AB34
:1009100083A2F73392D16002D2F7F582ACF0E58181
:1009200024F9F8E6FD08E6FE0886F008E6A2F733AB
:1009300092D56002D2F7F583AFF022AA82744CC040
:10094000E07409C0E0C022C0238A82220529E4B5F0
:100950002902052A22AA8274302AFA24C6500A746F
:10096000072AFA3000034302208A8202093BE5820B
:10097000FAC4540FF582C002120955D002740F5AFE
:10098000F582020955AA24AB25AC26AD27AE287501
:100990002F20EE2EFEED235401FF4206EA2AFAEB49
:1009A00033FBEC33FCED33FDC3EE952B4008EEC377
:1009B000952BFE430201D52FD98A248B258C268DB9
:1009C000278E2822858222858323E4F529F52AAA09
:1009D00030AB31AC328A828B838CF0120F70FD7495
:1009E000012AF530E43BF5318C32EDFA7003020F49
:1009F00054BA25028003020F4CC204C205C206C2CB
:100A000007C208C209C20AC20BC201C202C20375F0
:100A10002B00752C00752DFFAB30AC31AD328B82C5
:100A20008C838DF0120F70FAA3AB82AC838B308C69
:100A3000318D32BA25078A8212093B80928A06BE1E
:100A40003000402E8A06EE24C6402774FFB52D13D1
:100A5000E52C75F00AA4FEEA24D02EF52C70BFD246
:100A60000580BBE52D75F00AA4FEEA24D02EF52DF5
:100A700080ACBA2E0A74FFB52DA4752D00809F8A14
:100A800006BE6100400E8A06EE248540075302DF51
:100A9000D2008002C200BA20028075BA2303020B82
:100AA0001FBA2A03020B24BA2B02805FBA2D0280E0
:100AB00055BA4202805FBA4303020B69BA4403028B
:100AC0000CA4BA4503020CBEBA4603020CBABA47DC
:100AD00003020CC2BA4903020CA4BA4C02803BBA0E
:100AE0004E03020CC6BA4F03020CABBA5003020C01
:100AF0003DBA5303020B8DBA5503020CB0BA58032A
:100B0000020CB5020CF0D204020A1ED206020A1E22
:100B1000D207020A1ED209020A1ED20A020A1ED2F5
:100B20000B020A1E74FFB52D2030090BE53314F8B3
:100B30008833862C020A1EE53324FEF888338606A5
:100B4000088607188E2C020A1E30090BE53314F8AC
:100B50008833862D020A1EE53324FEF88833860684
:100B6000088607188E2D020A1E30090AE53314F88C
:100B700088338602800FE53324FEF8883386030825
:100B80008604188B028A8212093B020CF5E5332495
:100B9000FDF88833860308860408860518188B2418
:100BA0008C258D268B828C838DF0120FA5AB82ACA9
:100BB000838B2E74FFB52D03852E2D20041DC3E5D8
:100BC0002E952C5016E52CC3952EF52CAB2C152C00
:100BD000EB600875822012093B80F185248285250F
:100BE000838526F0120F70FBFA6029AB2D152DC3FB
:100BF000E464808BF063F08095F050188A821209CB
:100C00003BAB24AC25AD260BBB00010C8B248C2503
:100C10008D2680C7200403020CF5C3E52E952C40D9
:100C200003020CF5E52CC3952EF52CAB2C152CEB03
:100C30007003020CF575822012093B80EEE5332427
:100C4000FDF88833860308860408860518188B2467
:100C50008C258D26E526FB30E7047A438013EB5480
:100C60006060047A50800AEB30E6047A4980027AA8
:100C7000588A82C00212093B75823A12093B75827A
:100C80003012093B75827812093BD002BA490280C2
:100C90000BBA5002800685258212096E85248212C5
:100CA000096E8051D208752B0A804A752B08804541
:100CB000752B0A8040752B10803BD2018037D20201
:100CC0008033D203802FE53324FDF8883386030870
:100CD000860408860518188B248C258D268B828C1B
:100CE000838DF0E529120F8CA3E52A120F8C800565
:100CF0008A8212093B20010620020330035AE533A1
:100D000024FCF888338603088604088605088606CE
:100D10001818188B248C258D268E277524A27525EE
:100D20000075268085243485253585263674012571
:100D300034FEE43535FFAB368E248F258B26853483
:100D4000828535838536F0120F70FBFA7003020935
:100D5000CF8A8212093B80CCE52B70030209CF7B3E
:100D60003C30092BE53314F88833E6FC3395E0FD7D
:100D7000FEFF8C248D258E268F2720085EAC247DD7
:100D8000007E007F008C248D258E268F27804C309E
:100D90000A1FE53324FCF888338604088605088694
:100DA000060886071818188C248D258E268F278014
:100DB0002AE53324FEF88833860408860518ED33C7
:100DC00095E0FEFF8C248D258E268F2720080CAC05
:100DD00024AD257E007F008E268F27300B43E5242F
:100DE00045254526452760397408B52B0C7582309A
:100DF000C00312093BD00380287410B52B237582E1
:100E000030C00312093BD00330000C758278C00358
:100E100012093BD003800A758258C00312093BD0E7
:100E200003300825AC24AD25AE26E527FF30E717B3
:100E3000C3E49CFCE49DFDE49EFEE49FFF8C248DB6
:100E4000258E268F278002C208752E00D20C8B00BB
:100E5000752800C000120985D000200C0DE528C4BB
:100E6000FCE6FD4CF61888038002A628052EB20C7D
:100E7000E52445254526452770D68803E52C7003D3
:100E8000752C0120051A200417E52E04FCC3952CAF
:100E9000500E758220C00312093BD003152C80E947
:100EA00030080E75822DC00312093BD003152C802B
:100EB00024E52E602030060E75822BC00312093BFC
:100EC000D003152C800F30070C758220C003120947
:100ED0003BD003152C20041EAC2C152CC3E52E9CF6
:100EE00050273005047C3080027C208C82C00312A5
:100EF000093BD00380E2C3E52E952C5009E52CC3B5
:100F0000952EF52C8003752C008B00AB2E152EEB47
:100F10006022B20C200C0A08E6C4540FFB8B288018
:100F2000078603740F5BF528852882C000120955D7
:100F3000D00080D72004030209CFAB2C152CEB7016
:100F4000030209CF75822012093B80EE8A821209C2
:100F50003B0209CF852982852A8322AA82BA0A0800
:100F600010990280FB75990D10990280FB8A9922D5
:100F700020F71430F6148883A88220F507E6A883AA
:100F800075830022E280F7E49322E02220F71030FC
:100F9000F6118883A88220F507F6A88375830022BE
:100FA000F280F7F022AA82AB83ACF07D007E008A4B
:100FB000828B838CF0120F70FFA3AA82AB83EF6049
:100FC000070DBD00EA0E80E78D828E8322000000AF
:00000001FF
