:10000000020003758107120075E582600302006F2C
:10001000780079007A007B007C007D00EC4D601C4C
:1000200088828983E493A3A882A9838A828B83F040
:10003000A3AA82AB831CBCFFE31D80E07582007520
:1000400083007C007D00EC4D600AE4F0A31CBCFF43
:10005000F51D80F27582007583007C007D00EC4DFB
:10006000600AE4F0A31CBCFFF51D80F212007412BC
:1000700000D480FE2275E60075E70075D60075D7BE
:100080000075CE0075CF0075C60075C700758E115E
:1000900075BE0075BF00758200227A0A79F878B8BB
:1000A000D8FED9FADAF6222212009A7A08C0021291
:1000B000009AD002DAF712009A02009A7582FD02C5
:1000C00000A87582F50200A87582D50200A8758285
:1000D000550200A830A2031200BC30A3031200C2D4
:1000E00030C3031200C820B7EB1200CE80E6000038
:00000001FF
