:1000000002000E22000000000000000200CE7581F8
:100010000712007FE582600302007A780079007A97
:10002000007B007C007D00EC4D601C88828983E4AD
:1000300093A3A882A9838A828B83F0A3AA82AB832D
:100040001CBCFFE31D80E07582007583007C007D91
:1000500000EC4D600AE4F0A31CBCFFF51D80F275B6
:1000600082007583007C007D00EC4D600AE4F0A303
:100070001CBCFFF51D80F212000312014480FE75C6
:10008000E60075E70075D60075D70375CE7E75CF8F
:100090000075C60075C700758E1175BE0075BF006E
:1000A000438780759852759B00759AFA759B1EC29E
:1000B0008C75890175F4FF758CFF75F2C2758AC263
:1000C000D28CD2A9D2AFC290D29175820022B290C6
:1000D000B291327A0279967896D8FED9FADAF62277
:1000E00022AA82C2AFC0021200D3D0027B00BB089A
:1000F0000050318BF005F07C017D008006EC2CFC7B
:10010000ED33FDD5F0F78A067F00EE5204EF52057D
:10011000EC4D24FF92AFC002C0031200D3D003D035
:10012000020B80CAD2AF1200D30200D37582F5024F
:1001300000E17582FD0200E17582D50200E1758261
:10014000840200E130A10312012C30A2031201321B
:1001500030A30312013830A4EB12013E80E6000008
:00000001FF
