:1000000002000E22000000000000000200D87581EE
:100010000712007FE582600302007A780079007A97
:10002000007B007C007D00EC4D601C88828983E4AD
:1000300093A3A882A9838A828B83F0A3AA82AB832D
:100040001CBCFFE31D80E07582007583007C007D91
:1000500000EC4D600AE4F0A31CBCFFF51D80F275B6
:1000600082007583007C007D00EC4D600AE4F0A303
:100070001CBCFFF51D80F21200031201B980FE7551
:10008000E60075E7FF75D60075D70375CE7E75CF90
:100090000075C60075C700758E1175BE0075BF006E
:1000A000438780759852759B00759AFA759B1EC29E
:1000B0008C75890175F4FF758CFF75F2C2758AC263
:1000C000D28CD2A9D2AFC290D291C281C282C28355
:1000D000C284D28075820022B290B291327A0279C3
:1000E000C878C8D8FED9FADAF622227A02790578D9
:1000F0005CD8FED9FADAF62222AA82AB837C007D94
:1001000000C3EC9AED64808BF063F08095F0501A98
:10011000C002C003C004C0051200EBD005D004D05B
:1001200003D0020CBC00DA0D80D722AA82C2AFC075
:10013000021200DDD0027B00BB080050318BF005BD
:10014000F07C017D008006EC2CFCED33FDD5F0F752
:100150008A067F00EE5204EF5205EC4D24FF92AF69
:10016000C002C0031200DDD003D0020B80CAD2AFA0
:100170001200DD0200DDC28080FC7582FD12012BC1
:10018000C280D2839005DC1200F9C283D28022752E
:1001900082D512012BC280D281900BB81200F9C215
:1001A00081D2802275828612012BC280D284902E49
:1001B000E01200F9C284D2802230A103120176300D
:1001C000A20312017A30A30312018F30A4EB1201B3
:1001D000A480E60000000000000000000000000015
:00000001FF
