:1000000002000E22000000000000000200CE7581F8
:100010000712007FE582600302007A780079007A97
:10002000007B007C007D00EC4D601C88828983E4AD
:1000300093A3A882A9838A828B83F0A3AA82AB832D
:100040001CBCFFE31D80E07582007583007C007D91
:1000500000EC4D600AE4F0A31CBCFFF51D80F275B6
:1000600082007583007C007D00EC4D600AE4F0A303
:100070001CBCFFF51D80F212000312018480FE7586
:10008000E60075E7FF75D60075D70375CE7E75CF90
:100090000075C60075C700758E1175BE0075BF006E
:1000A000438780759852759B00759AFA759B1EC29E
:1000B0008C75890175F4FF758CFF75F2C2758AC263
:1000C000D28CD2A9D2AFC290D29175820022B290C6
:1000D000B291327A0279C878C8D8FED9FADAF62213
:1000E000227A027905785CD8FED9FADAF62222AAB9
:1000F00082AB837C007D00C3EC9AED64808BF0635F
:10010000F08095F0501AC002C003C004C005120070
:10011000E1D005D004D003D0020CBC00DA0D80D7AA
:1001200022AA82C2AFC0021200D3D0027B00BB0859
:100130000050318BF005F07C017D008006EC2CFC3A
:10014000ED33FDD5F0F78A067F00EE5204EF52053D
:10015000EC4D24FF92AFC002C0031200D3D003D0F5
:10016000020B80CAD2AF1200D30200D37582F5020F
:1001700001217582FD0201217582D502012175825E
:100180008602012130A10312016C30A20312017218
:1001900030A30312017830A4EB12017E80E6000048
:00000001FF
